{
  "transactions": [
    {
      "hash": "0xd7e6b6daffd0e04866308fefb0cfe7f332c8782cfd0746193729d5451fa1445c",
      "transactionType": "CALL",
      "contractName": null,
      "contractAddress": "0x8dfd68e1a08209b727149b2256140af9ce1978f0",
      "function": "executeBridge((address,address,address,uint256,uint256,uint256,uint256,(uint256,uint256,uint256,uint256,uint256,uint256,uint256),bytes,uint256),address,bytes)",
      "arguments": [
        "(0x8dfD68e1A08209b727149B2256140af9CE1978F0, 0x0000000000000000000000000000000000000000, 0x0000000000000000000000000000000000000000, 100000000000000000, 99440000000000000, 11155111, 421614, (500000000000000, 560000000000000, 1060000000000000, 3, 7200000000000000000000, 99, 10), 0x, 1762077480)",
        "0x253eF0749119119f228a362f8F74A35C0A273fA5",
        "0x"
      ],
      "transaction": {
        "from": "0x253ef0749119119f228a362f8f74a35c0a273fa5",
        "to": "0x8dfd68e1a08209b727149b2256140af9ce1978f0",
        "gas": "0x143e8f",
        "value": "0x16345785d8a0000",
        "input": "0x8f20a7f70000000000000000000000000000000000000000000000000000000000000060000000000000000000000000253ef0749119119f228a362f8f74a35c0a273fa500000000000000000000000000000000000000000000000000000000000002800000000000000000000000008dfd68e1a08209b727149b2256140af9ce1978f000000000000000000000000000000000000000000000000000000000000000000000000000000000000000000000000000000000000000000000000000000000000000000000000000000000000000000000000000000000016345785d8a000000000000000000000000000000000000000000000000000001614827347700000000000000000000000000000000000000000000000000000000000000aa36a70000000000000000000000000000000000000000000000000000000000066eee0000000000000000000000000000000000000000000000000001c6bf526340000000000000000000000000000000000000000000000000000001fd51291300000000000000000000000000000000000000000000000000000003c4107b764000000000000000000000000000000000000000000000000000000000000000000300000000000000000000000000000000000000000000018650127cc3dc8000000000000000000000000000000000000000000000000000000000000000000063000000000000000000000000000000000000000000000000000000000000000a00000000000000000000000000000000000000000000000000000000000002000000000000000000000000000000000000000000000000000000000069072b2800000000000000000000000000000000000000000000000000000000000000000000000000000000000000000000000000000000000000000000000000000000",
        "nonce": "0x4f",
        "chainId": "0xaa36a7"
      },
      "additionalContracts": [],
      "isFixedGasLimit": false
    }
  ],
  "receipts": [
    {
      "status": "0x1",
      "cumulativeGasUsed": "0x8f8ec7",
      "logs": [
        {
          "address": "0x8dfd68e1a08209b727149b2256140af9ce1978f0",
          "topics": [
            "0xf8b93d99f828ea6dc825a1d9830dd368efbe210896261ba9ddf4b8c2db7c11df",
            "0xfeb01104cbf230b2588d67e412bc10968fead224131f0b2e3e5f5d475a8f1bf6"
          ],
          "data": "0x0000000000000000000000000000000000000000000000000161482734770000000000000000000000000000000000000000000000000000000000000000000000000000000000000000000000000000000000000000000000000000000000b4",
          "blockHash": "0xbdb530d40d5997477623778bcd5d7d80a0fb65926bdd0407cac0290efdb0405d",
          "blockNumber": "0x919eb9",
          "blockTimestamp": "0x69071d54",
          "transactionHash": "0xd7e6b6daffd0e04866308fefb0cfe7f332c8782cfd0746193729d5451fa1445c",
          "transactionIndex": "0x4b",
          "logIndex": "0x4f",
          "removed": false
        },
        {
          "address": "0x8dfd68e1a08209b727149b2256140af9ce1978f0",
          "topics": [
            "0x8c6c0defbdff6a8ff44571363f339674d0a9166709bca05d2f866b06fb0a974a",
            "0xfeb01104cbf230b2588d67e412bc10968fead224131f0b2e3e5f5d475a8f1bf6",
            "0x0000000000000000000000000000000000000000000000000000000000000102"
          ],
          "data": "0x",
          "blockHash": "0xbdb530d40d5997477623778bcd5d7d80a0fb65926bdd0407cac0290efdb0405d",
          "blockNumber": "0x919eb9",
          "blockTimestamp": "0x69071d54",
          "transactionHash": "0xd7e6b6daffd0e04866308fefb0cfe7f332c8782cfd0746193729d5451fa1445c",
          "transactionIndex": "0x4b",
          "logIndex": "0x50",
          "removed": false
        },
        {
          "address": "0x8dfd68e1a08209b727149b2256140af9ce1978f0",
          "topics": [
            "0x56ca1441c76a98845661e51ce81568a517265ae9ab2f9871a232c11a9208a9f0",
            "0xfeb01104cbf230b2588d67e412bc10968fead224131f0b2e3e5f5d475a8f1bf6",
            "0x000000000000000000000000253ef0749119119f228a362f8f74a35c0a273fa5",
            "0x000000000000000000000000253ef0749119119f228a362f8f74a35c0a273fa5"
          ],
          "data": "0x00000000000000000000000000000000000000000000000000000000000000200000000000000000000000008dfd68e1a08209b727149b2256140af9ce1978f000000000000000000000000000000000000000000000000000000000000000000000000000000000000000000000000000000000000000000000000000000000000000000000000000000000000000000000000000000000016345785d8a000000000000000000000000000000000000000000000000000001614827347700000000000000000000000000000000000000000000000000000000000000aa36a70000000000000000000000000000000000000000000000000000000000066eee0000000000000000000000000000000000000000000000000001c6bf526340000000000000000000000000000000000000000000000000000001fd51291300000000000000000000000000000000000000000000000000000003c4107b764000000000000000000000000000000000000000000000000000000000000000000300000000000000000000000000000000000000000000018650127cc3dc8000000000000000000000000000000000000000000000000000000000000000000063000000000000000000000000000000000000000000000000000000000000000a00000000000000000000000000000000000000000000000000000000000002000000000000000000000000000000000000000000000000000000000069072b280000000000000000000000000000000000000000000000000000000000000000",
          "blockHash": "0xbdb530d40d5997477623778bcd5d7d80a0fb65926bdd0407cac0290efdb0405d",
          "blockNumber": "0x919eb9",
          "blockTimestamp": "0x69071d54",
          "transactionHash": "0xd7e6b6daffd0e04866308fefb0cfe7f332c8782cfd0746193729d5451fa1445c",
          "transactionIndex": "0x4b",
          "logIndex": "0x51",
          "removed": false
        },
        {
          "address": "0x8dfd68e1a08209b727149b2256140af9ce1978f0",
          "topics": [
            "0x768c04d6770285ddade0784bbf6228da4f4b78c9baa3d7581c147273be051a40",
            "0xfeb01104cbf230b2588d67e412bc10968fead224131f0b2e3e5f5d475a8f1bf6",
            "0x0000000000000000000000000000000000000000000000000000000000000102"
          ],
          "data": "0x000000000000000000000000000000000000000000000000000012309ce54000",
          "blockHash": "0xbdb530d40d5997477623778bcd5d7d80a0fb65926bdd0407cac0290efdb0405d",
          "blockNumber": "0x919eb9",
          "blockTimestamp": "0x69071d54",
          "transactionHash": "0xd7e6b6daffd0e04866308fefb0cfe7f332c8782cfd0746193729d5451fa1445c",
          "transactionIndex": "0x4b",
          "logIndex": "0x52",
          "removed": false
        }
      ],
      "logsBloom": "0x0000000000000000000000000000000000000000000000000000004000000000100000000002000000000000080000000000000000000000000000000000000008000000000001000000000000000000000000000000000001000000000400000000000000002000008000000000000000000000080000000000000000000000002000000000200020000000000000000000000040000000000000000000000000000000000000000000000000000000000004000000004000000000000000000000000000000000000000000001000000000000000000000000400000000000000000000000000010000000000000040800000000000000000000000000000c",
      "type": "0x2",
      "transactionHash": "0xd7e6b6daffd0e04866308fefb0cfe7f332c8782cfd0746193729d5451fa1445c",
      "transactionIndex": "0x4b",
      "blockHash": "0xbdb530d40d5997477623778bcd5d7d80a0fb65926bdd0407cac0290efdb0405d",
      "blockNumber": "0x919eb9",
      "gasUsed": "0xdd7a2",
      "effectiveGasPrice": "0xf4244",
      "from": "0x253ef0749119119f228a362f8f74a35c0a273fa5",
      "to": "0x8dfd68e1a08209b727149b2256140af9ce1978f0",
      "contractAddress": null
    }
  ],
  "libraries": [],
  "pending": [],
  "returns": {},
  "timestamp": 1762073941713,
  "chain": 11155111,
  "commit": null
}