{
  "transactions": [
    {
      "hash": "0x7953b69f47788a92a15d11955d7af24ada140ed8cf782479baf757ab5b39a48b",
      "transactionType": "CALL",
      "contractName": null,
      "contractAddress": "0xaae29b0366299461418f5324a79afc425be5ae21",
      "function": "createRetryableTicket(address,uint256,uint256,address,address,uint256,uint256,bytes)",
      "arguments": [
        "0x253eF0749119119f228a362f8F74A35C0A273fA5",
        "1000000000000000",
        "10000000000000000",
        "0x253eF0749119119f228a362f8F74A35C0A273fA5",
        "0x253eF0749119119f228a362f8F74A35C0A273fA5",
        "1000000",
        "1000000000",
        "0x"
      ],
      "transaction": {
        "from": "0x253ef0749119119f228a362f8f74a35c0a273fa5",
        "to": "0xaae29b0366299461418f5324a79afc425be5ae21",
        "gas": "0x20ead",
        "value": "0x2aa1efb94e0000",
        "input": "0x679b6ded000000000000000000000000253ef0749119119f228a362f8f74a35c0a273fa500000000000000000000000000000000000000000000000000038d7ea4c68000000000000000000000000000000000000000000000000000002386f26fc10000000000000000000000000000253ef0749119119f228a362f8f74a35c0a273fa5000000000000000000000000253ef0749119119f228a362f8f74a35c0a273fa500000000000000000000000000000000000000000000000000000000000f4240000000000000000000000000000000000000000000000000000000003b9aca0000000000000000000000000000000000000000000000000000000000000001000000000000000000000000000000000000000000000000000000000000000000",
        "nonce": "0xd",
        "chainId": "0xaa36a7"
      },
      "additionalContracts": [],
      "isFixedGasLimit": false
    }
  ],
  "receipts": [
    {
      "status": "0x1",
      "cumulativeGasUsed": "0x6be85a",
      "logs": [
        {
          "address": "0x38f918d0e9f1b721edaa41302e399fa1b79333a9",
          "topics": [
            "0x5e3c1311ea442664e8b1611bfabef659120ea7a0a2cfc0667700bebc69cbffe1",
            "0x00000000000000000000000000000000000000000000000000000000001c8bc5",
            "0xe72a176a4c66840b4a9c81fc1edae12ae836f316ec0a987a92d1fd56ee8bfcc5"
          ],
          "data": "0x000000000000000000000000aae29b0366299461418f5324a79afc425be5ae210000000000000000000000000000000000000000000000000000000000000009000000000000000000000000364ff0749119119f228a362f8f74a35c0a2750b60402b36c7c4a0820993eff57012858b401892ad94ab6690aef5ae4a0e99ff0ad000000000000000000000000000000000000000000000000000000000000000a0000000000000000000000000000000000000000000000000000000069035094",
          "blockHash": "0x569655b3c6326df91202a6ff1b78412c83430cae224731cfaee06870a0a6cee0",
          "blockNumber": "0x914dc5",
          "blockTimestamp": "0x69035094",
          "transactionHash": "0x7953b69f47788a92a15d11955d7af24ada140ed8cf782479baf757ab5b39a48b",
          "transactionIndex": "0x47",
          "logIndex": "0x68",
          "removed": false
        },
        {
          "address": "0xaae29b0366299461418f5324a79afc425be5ae21",
          "topics": [
            "0xff64905f73a67fb594e0f940a8075a860db489ad991e032f48c81123eb52d60b",
            "0x00000000000000000000000000000000000000000000000000000000001c8bc5"
          ],
          "data": "0x00000000000000000000000000000000000000000000000000000000000000200000000000000000000000000000000000000000000000000000000000000120000000000000000000000000253ef0749119119f228a362f8f74a35c0a273fa500000000000000000000000000000000000000000000000000038d7ea4c68000000000000000000000000000000000000000000000000000002aa1efb94e0000000000000000000000000000000000000000000000000000002386f26fc10000000000000000000000000000253ef0749119119f228a362f8f74a35c0a273fa5000000000000000000000000253ef0749119119f228a362f8f74a35c0a273fa500000000000000000000000000000000000000000000000000000000000f4240000000000000000000000000000000000000000000000000000000003b9aca000000000000000000000000000000000000000000000000000000000000000000",
          "blockHash": "0x569655b3c6326df91202a6ff1b78412c83430cae224731cfaee06870a0a6cee0",
          "blockNumber": "0x914dc5",
          "blockTimestamp": "0x69035094",
          "transactionHash": "0x7953b69f47788a92a15d11955d7af24ada140ed8cf782479baf757ab5b39a48b",
          "transactionIndex": "0x47",
          "logIndex": "0x69",
          "removed": false
        }
      ],
      "logsBloom": "0x00000000000000000100000020000000000000000000000000000000400000002000000000000000000000000000000000000000020000000000000000000000000000000000000000000000000040000000000080000000000000000000000000000000000000000000000004000000000000000000000000000000000000000000000000000000000000001000000000000000000000000000000000000000000000020000000000000000000000000040000000000000000004000000000000200000000000000000000000000000000000000000000000001000000000000000000004800000000000000000000000000000000000000000000000004200",
      "type": "0x2",
      "transactionHash": "0x7953b69f47788a92a15d11955d7af24ada140ed8cf782479baf757ab5b39a48b",
      "transactionIndex": "0x47",
      "blockHash": "0x569655b3c6326df91202a6ff1b78412c83430cae224731cfaee06870a0a6cee0",
      "blockNumber": "0x914dc5",
      "gasUsed": "0x17d5a",
      "effectiveGasPrice": "0xf424a",
      "from": "0x253ef0749119119f228a362f8f74a35c0a273fa5",
      "to": "0xaae29b0366299461418f5324a79afc425be5ae21",
      "contractAddress": null
    }
  ],
  "libraries": [],
  "pending": [],
  "returns": {},
  "timestamp": 1761824917392,
  "chain": 11155111,
  "commit": "813a01f"
}