{
  "transactions": [
    {
      "hash": "0x7a2bcfb8a3b370b26d0db98703de41330bec538b189e21101674714d044a3570",
      "transactionType": "CALL",
      "contractName": null,
      "contractAddress": "0xaae29b0366299461418f5324a79afc425be5ae21",
      "function": "createRetryableTicket(address,uint256,uint256,address,address,uint256,uint256,bytes)",
      "arguments": [
        "0x253eF0749119119f228a362f8F74A35C0A273fA5",
        "1000000000000000",
        "10000000000000000",
        "0x253eF0749119119f228a362f8F74A35C0A273fA5",
        "0x253eF0749119119f228a362f8F74A35C0A273fA5",
        "1000000",
        "1000000000",
        "0x"
      ],
      "transaction": {
        "from": "0x253ef0749119119f228a362f8f74a35c0a273fa5",
        "to": "0xaae29b0366299461418f5324a79afc425be5ae21",
        "gas": "0x20ead",
        "value": "0x2aa1efb94e0000",
        "input": "0x679b6ded000000000000000000000000253ef0749119119f228a362f8f74a35c0a273fa500000000000000000000000000000000000000000000000000038d7ea4c68000000000000000000000000000000000000000000000000000002386f26fc10000000000000000000000000000253ef0749119119f228a362f8f74a35c0a273fa5000000000000000000000000253ef0749119119f228a362f8f74a35c0a273fa500000000000000000000000000000000000000000000000000000000000f4240000000000000000000000000000000000000000000000000000000003b9aca0000000000000000000000000000000000000000000000000000000000000001000000000000000000000000000000000000000000000000000000000000000000",
        "nonce": "0x5",
        "chainId": "0xaa36a7"
      },
      "additionalContracts": [],
      "isFixedGasLimit": false
    }
  ],
  "receipts": [
    {
      "status": "0x1",
      "cumulativeGasUsed": "0xf87d35",
      "logs": [
        {
          "address": "0x38f918d0e9f1b721edaa41302e399fa1b79333a9",
          "topics": [
            "0x5e3c1311ea442664e8b1611bfabef659120ea7a0a2cfc0667700bebc69cbffe1",
            "0x00000000000000000000000000000000000000000000000000000000001c8ab9",
            "0x73c8fa874b8c449b7b67847ea2a47cab18b5c52e1d02e45dba3d5539b79164b6"
          ],
          "data": "0x000000000000000000000000aae29b0366299461418f5324a79afc425be5ae210000000000000000000000000000000000000000000000000000000000000009000000000000000000000000364ff0749119119f228a362f8f74a35c0a2750b60402b36c7c4a0820993eff57012858b401892ad94ab6690aef5ae4a0e99ff0ad000000000000000000000000000000000000000000000000000000000000000a000000000000000000000000000000000000000000000000000000006902ad74",
          "blockHash": "0xaba2fd19f0c1cf105298f003fe0ef9e1736998fdfebdba067de5e8d452840099",
          "blockNumber": "0x914044",
          "blockTimestamp": "0x6902ad74",
          "transactionHash": "0x7a2bcfb8a3b370b26d0db98703de41330bec538b189e21101674714d044a3570",
          "transactionIndex": "0x3a",
          "logIndex": "0x7e",
          "removed": false
        },
        {
          "address": "0xaae29b0366299461418f5324a79afc425be5ae21",
          "topics": [
            "0xff64905f73a67fb594e0f940a8075a860db489ad991e032f48c81123eb52d60b",
            "0x00000000000000000000000000000000000000000000000000000000001c8ab9"
          ],
          "data": "0x00000000000000000000000000000000000000000000000000000000000000200000000000000000000000000000000000000000000000000000000000000120000000000000000000000000253ef0749119119f228a362f8f74a35c0a273fa500000000000000000000000000000000000000000000000000038d7ea4c68000000000000000000000000000000000000000000000000000002aa1efb94e0000000000000000000000000000000000000000000000000000002386f26fc10000000000000000000000000000253ef0749119119f228a362f8f74a35c0a273fa5000000000000000000000000253ef0749119119f228a362f8f74a35c0a273fa500000000000000000000000000000000000000000000000000000000000f4240000000000000000000000000000000000000000000000000000000003b9aca000000000000000000000000000000000000000000000000000000000000000000",
          "blockHash": "0xaba2fd19f0c1cf105298f003fe0ef9e1736998fdfebdba067de5e8d452840099",
          "blockNumber": "0x914044",
          "blockTimestamp": "0x6902ad74",
          "transactionHash": "0x7a2bcfb8a3b370b26d0db98703de41330bec538b189e21101674714d044a3570",
          "transactionIndex": "0x3a",
          "logIndex": "0x7f",
          "removed": false
        }
      ],
      "logsBloom": "0x00000000000000000000000020000080000000000000000000000000400000002000000800000000000200000000000000004000020000000000000000000000000000000000000000000000000000000000000080000000000000000000000000000000000000000000000004000000000000000000000000000000000000000000000000000002000000000000000000000000000000000000000000000000000000020000000000000000000000000040000000000000000000000000000000000000000000000000000000000000000000000000000000001000000000000000000004000000000000000000000040000000000000000000000000004200",
      "type": "0x2",
      "transactionHash": "0x7a2bcfb8a3b370b26d0db98703de41330bec538b189e21101674714d044a3570",
      "transactionIndex": "0x3a",
      "blockHash": "0xaba2fd19f0c1cf105298f003fe0ef9e1736998fdfebdba067de5e8d452840099",
      "blockNumber": "0x914044",
      "gasUsed": "0x17d5a",
      "effectiveGasPrice": "0xf424a",
      "from": "0x253ef0749119119f228a362f8f74a35c0a273fa5",
      "to": "0xaae29b0366299461418f5324a79afc425be5ae21",
      "contractAddress": null
    }
  ],
  "libraries": [],
  "pending": [],
  "returns": {},
  "timestamp": 1761783157978,
  "chain": 11155111,
  "commit": null
}