{
  "transactions": [
    {
      "hash": "0x9290a497e8c83c7354b2888161cc1c9b39616934bf2973f08424041ba565b4f7",
      "transactionType": "CALL",
      "contractName": null,
      "contractAddress": "0x1fca7be27d3981ab8783f862672f2be6346383d5",
      "function": "setChainSupport(uint256,bool)",
      "arguments": [
        "421614",
        "true"
      ],
      "transaction": {
        "from": "0x253ef0749119119f228a362f8f74a35c0a273fa5",
        "to": "0x1fca7be27d3981ab8783f862672f2be6346383d5",
        "gas": "0x10331",
        "value": "0x0",
        "input": "0xec93dee30000000000000000000000000000000000000000000000000000000000066eee0000000000000000000000000000000000000000000000000000000000000001",
        "nonce": "0x16",
        "chainId": "0xaa36a7"
      },
      "additionalContracts": [],
      "isFixedGasLimit": false
    },
    {
      "hash": "0x63454bd2d9bdf374b4af25448be1050523063dfef207be48b46acdf34ee468f9",
      "transactionType": "CALL",
      "contractName": null,
      "contractAddress": "0x1fca7be27d3981ab8783f862672f2be6346383d5",
      "function": "addBridgeAdapter(uint256,address,string,uint256)",
      "arguments": [
        "421614",
        "0x61D490b46a579588448F770aabb7B02582ed9AD9",
        "Arbitrum",
        "0"
      ],
      "transaction": {
        "from": "0x253ef0749119119f228a362f8f74a35c0a273fa5",
        "to": "0x1fca7be27d3981ab8783f862672f2be6346383d5",
        "gas": "0x20899",
        "value": "0x0",
        "input": "0xb88930090000000000000000000000000000000000000000000000000000000000066eee00000000000000000000000061d490b46a579588448f770aabb7b02582ed9ad9000000000000000000000000000000000000000000000000000000000000008000000000000000000000000000000000000000000000000000000000000000000000000000000000000000000000000000000000000000000000000000000008417262697472756d000000000000000000000000000000000000000000000000",
        "nonce": "0x17",
        "chainId": "0xaa36a7"
      },
      "additionalContracts": [],
      "isFixedGasLimit": false
    },
    {
      "hash": "0xec39e9ee2dd713e009390a9052d6949b3e415736d2e50a8c6a3c7136ca4819e1",
      "transactionType": "CALL",
      "contractName": null,
      "contractAddress": "0x1fca7be27d3981ab8783f862672f2be6346383d5",
      "function": "setMaxPriceStalenessSeconds(uint256)",
      "arguments": [
        "86400"
      ],
      "transaction": {
        "from": "0x253ef0749119119f228a362f8f74a35c0a273fa5",
        "to": "0x1fca7be27d3981ab8783f862672f2be6346383d5",
        "gas": "0x8db4",
        "value": "0x0",
        "input": "0xc9347b560000000000000000000000000000000000000000000000000000000000015180",
        "nonce": "0x18",
        "chainId": "0xaa36a7"
      },
      "additionalContracts": [],
      "isFixedGasLimit": false
    }
  ],
  "receipts": [
    {
      "status": "0x1",
      "cumulativeGasUsed": "0x9a77e1",
      "logs": [
        {
          "address": "0x1fca7be27d3981ab8783f862672f2be6346383d5",
          "topics": [
            "0x3867ef478c2fcf9f1d860353178b53a6a5b10cdee0ab40aacda7ca6b38b86d73",
            "0x0000000000000000000000000000000000000000000000000000000000066eee"
          ],
          "data": "0x0000000000000000000000000000000000000000000000000000000000000001",
          "blockHash": "0xcd444c2ea78bcab3fbaecbe6a39d5b238304819f202fe2e088f217f0fac09e40",
          "blockNumber": "0x9159e3",
          "blockTimestamp": "0x6903e244",
          "transactionHash": "0x9290a497e8c83c7354b2888161cc1c9b39616934bf2973f08424041ba565b4f7",
          "transactionIndex": "0x63",
          "logIndex": "0x73",
          "removed": false
        }
      ],
      "logsBloom": "0x00000000000000000000000000000000000000000000000000000000000000000000000000000000000000000000000000000000000000000000000000000000000000000020000000000000000000000000000000000000000000000000000000000000000000000000000000000000000100000000000000000000000000000200000000000000200000000000000040000000000000000000080000000000000000000000400000000000000000000000000000000000001000000000000000000000000000000000000000000000000000000000000000000000080000000000000000000000000000000000000000000000000000000000000000000000",
      "type": "0x2",
      "transactionHash": "0x9290a497e8c83c7354b2888161cc1c9b39616934bf2973f08424041ba565b4f7",
      "transactionIndex": "0x63",
      "blockHash": "0xcd444c2ea78bcab3fbaecbe6a39d5b238304819f202fe2e088f217f0fac09e40",
      "blockNumber": "0x9159e3",
      "gasUsed": "0xbba7",
      "effectiveGasPrice": "0xf423f",
      "from": "0x253ef0749119119f228a362f8f74a35c0a273fa5",
      "to": "0x1fca7be27d3981ab8783f862672f2be6346383d5",
      "contractAddress": null
    },
    {
      "status": "0x1",
      "cumulativeGasUsed": "0x9bf0c9",
      "logs": [
        {
          "address": "0x1fca7be27d3981ab8783f862672f2be6346383d5",
          "topics": [
            "0x49124b03c32b0ada881a14ddae29b8b92bc7c2835ca69f75f6e7e7712b791c08",
            "0x0000000000000000000000000000000000000000000000000000000000066eee",
            "0x00000000000000000000000061d490b46a579588448f770aabb7b02582ed9ad9"
          ],
          "data": "0x0000000000000000000000000000000000000000000000000000000000000001",
          "blockHash": "0xcd444c2ea78bcab3fbaecbe6a39d5b238304819f202fe2e088f217f0fac09e40",
          "blockNumber": "0x9159e3",
          "blockTimestamp": "0x6903e244",
          "transactionHash": "0x63454bd2d9bdf374b4af25448be1050523063dfef207be48b46acdf34ee468f9",
          "transactionIndex": "0x64",
          "logIndex": "0x74",
          "removed": false
        }
      ],
      "logsBloom": "0x08000000000000000000000000000000000000000000000000000000000000000000000000000000000000000000000000000000000000000000000000000000000000000020000000000000000000000000000000000000000000000000000000000000000000000000000000000000000100000000000000000000000000000000000000000000200000000020000040000000000000000000000000000000000000000000400000000000000000000000000000000020001000000000000000000000000000000000010000000100000000000000000000000000000000000000000000000000000000000001000000000000000000000000000000000000",
      "type": "0x2",
      "transactionHash": "0x63454bd2d9bdf374b4af25448be1050523063dfef207be48b46acdf34ee468f9",
      "transactionIndex": "0x64",
      "blockHash": "0xcd444c2ea78bcab3fbaecbe6a39d5b238304819f202fe2e088f217f0fac09e40",
      "blockNumber": "0x9159e3",
      "gasUsed": "0x178e8",
      "effectiveGasPrice": "0xf423f",
      "from": "0x253ef0749119119f228a362f8f74a35c0a273fa5",
      "to": "0x1fca7be27d3981ab8783f862672f2be6346383d5",
      "contractAddress": null
    },
    {
      "status": "0x1",
      "cumulativeGasUsed": "0x9c5761",
      "logs": [],
      "logsBloom": "0x00000000000000000000000000000000000000000000000000000000000000000000000000000000000000000000000000000000000000000000000000000000000000000000000000000000000000000000000000000000000000000000000000000000000000000000000000000000000000000000000000000000000000000000000000000000000000000000000000000000000000000000000000000000000000000000000000000000000000000000000000000000000000000000000000000000000000000000000000000000000000000000000000000000000000000000000000000000000000000000000000000000000000000000000000000000",
      "type": "0x2",
      "transactionHash": "0xec39e9ee2dd713e009390a9052d6949b3e415736d2e50a8c6a3c7136ca4819e1",
      "transactionIndex": "0x65",
      "blockHash": "0xcd444c2ea78bcab3fbaecbe6a39d5b238304819f202fe2e088f217f0fac09e40",
      "blockNumber": "0x9159e3",
      "gasUsed": "0x6698",
      "effectiveGasPrice": "0xf423f",
      "from": "0x253ef0749119119f228a362f8f74a35c0a273fa5",
      "to": "0x1fca7be27d3981ab8783f862672f2be6346383d5",
      "contractAddress": null
    }
  ],
  "libraries": [],
  "pending": [],
  "returns": {},
  "timestamp": 1761862214065,
  "chain": 11155111,
  "commit": "a062478"
}