{
  "transactions": [
    {
      "hash": "0xbcd1a2cafeed887ffa0822381ee2591180c01d398e4756dbbb0ade550596a20b",
      "transactionType": "CALL",
      "contractName": null,
      "contractAddress": "0xc3980a99003ec243924fc8b9720d441c653c3bb1",
      "function": "registerAdapter(address)",
      "arguments": [
        "0xB9B51072EB56ca874224460e65fa96f2d5BeD7f5"
      ],
      "transaction": {
        "from": "0x253ef0749119119f228a362f8f74a35c0a273fa5",
        "to": "0xc3980a99003ec243924fc8b9720d441c653c3bb1",
        "gas": "0x2d079",
        "value": "0x0",
        "input": "0x22f2caf1000000000000000000000000b9b51072eb56ca874224460e65fa96f2d5bed7f5",
        "nonce": "0x4b",
        "chainId": "0xaa36a7"
      },
      "additionalContracts": [],
      "isFixedGasLimit": false
    },
    {
      "hash": "0x85576595d7e005daf74e7aabb21d3f539e324967f7945f612e35de5dee90bd89",
      "transactionType": "CALL",
      "contractName": null,
      "contractAddress": "0xc3980a99003ec243924fc8b9720d441c653c3bb1",
      "function": "registerAdapter(address)",
      "arguments": [
        "0x8dfD68e1A08209b727149B2256140af9CE1978F0"
      ],
      "transaction": {
        "from": "0x253ef0749119119f228a362f8f74a35c0a273fa5",
        "to": "0xc3980a99003ec243924fc8b9720d441c653c3bb1",
        "gas": "0x2fb1c",
        "value": "0x0",
        "input": "0x22f2caf10000000000000000000000008dfd68e1a08209b727149b2256140af9ce1978f0",
        "nonce": "0x4c",
        "chainId": "0xaa36a7"
      },
      "additionalContracts": [],
      "isFixedGasLimit": false
    },
    {
      "hash": "0xef713659690736120bf0b8cf928a70143bb66249927a3e4d594526d5d269f8f2",
      "transactionType": "CALL",
      "contractName": null,
      "contractAddress": "0xc3980a99003ec243924fc8b9720d441c653c3bb1",
      "function": "registerAdapter(address)",
      "arguments": [
        "0x2f097CD8623EB3b8Ea6d161fe87BbF154A238A3f"
      ],
      "transaction": {
        "from": "0x253ef0749119119f228a362f8f74a35c0a273fa5",
        "to": "0xc3980a99003ec243924fc8b9720d441c653c3bb1",
        "gas": "0x2fb1c",
        "value": "0x0",
        "input": "0x22f2caf10000000000000000000000002f097cd8623eb3b8ea6d161fe87bbf154a238a3f",
        "nonce": "0x4d",
        "chainId": "0xaa36a7"
      },
      "additionalContracts": [],
      "isFixedGasLimit": false
    }
  ],
  "receipts": [
    {
      "status": "0x1",
      "cumulativeGasUsed": "0x8fca40",
      "logs": [
        {
          "address": "0xc3980a99003ec243924fc8b9720d441c653c3bb1",
          "topics": [
            "0x1e4247fdab5708a9838dfa7049b607d56751d7e44584c555c3ca8883b9928065",
            "0x000000000000000000000000b9b51072eb56ca874224460e65fa96f2d5bed7f5"
          ],
          "data": "0x000000000000000000000000000000000000000000000000000000000000002000000000000000000000000000000000000000000000000000000000000000124c617965725a65726f2053746172676174650000000000000000000000000000",
          "blockHash": "0x316c50ace89ae2dd805bbb7ef15fff003a26d8fb1af3d8ee863b2d96d1e585ca",
          "blockNumber": "0x919621",
          "blockTimestamp": "0x6906b604",
          "transactionHash": "0xbcd1a2cafeed887ffa0822381ee2591180c01d398e4756dbbb0ade550596a20b",
          "transactionIndex": "0x33",
          "logIndex": "0x3c",
          "removed": false
        }
      ],
      "logsBloom": "0x00100000000000000008000000000000000000000000000000000000000000002000000000000000000000000000000000000000000000000000000000000000000000000000000000000000000000000000000000000000000000000000000000000000000000000000000000000000000000000000000000000000000000000000000000000000080000000010000000000000000000000000000800000000000000080000000000000000000000000000000000000000000000000000000000000000200000000000000000000000000000000000000000000000000000000000000000000000000000000000000000000000000000000000000000400000",
      "type": "0x2",
      "transactionHash": "0xbcd1a2cafeed887ffa0822381ee2591180c01d398e4756dbbb0ade550596a20b",
      "transactionIndex": "0x33",
      "blockHash": "0x316c50ace89ae2dd805bbb7ef15fff003a26d8fb1af3d8ee863b2d96d1e585ca",
      "blockNumber": "0x919621",
      "gasUsed": "0x2099d",
      "effectiveGasPrice": "0xf4248",
      "from": "0x253ef0749119119f228a362f8f74a35c0a273fa5",
      "to": "0xc3980a99003ec243924fc8b9720d441c653c3bb1",
      "contractAddress": null
    },
    {
      "status": "0x1",
      "cumulativeGasUsed": "0x91d409",
      "logs": [
        {
          "address": "0xc3980a99003ec243924fc8b9720d441c653c3bb1",
          "topics": [
            "0x1e4247fdab5708a9838dfa7049b607d56751d7e44584c555c3ca8883b9928065",
            "0x0000000000000000000000008dfd68e1a08209b727149b2256140af9ce1978f0"
          ],
          "data": "0x0000000000000000000000000000000000000000000000000000000000000020000000000000000000000000000000000000000000000000000000000000000f4163726f73732050726f746f636f6c0000000000000000000000000000000000",
          "blockHash": "0x316c50ace89ae2dd805bbb7ef15fff003a26d8fb1af3d8ee863b2d96d1e585ca",
          "blockNumber": "0x919621",
          "blockTimestamp": "0x6906b604",
          "transactionHash": "0x85576595d7e005daf74e7aabb21d3f539e324967f7945f612e35de5dee90bd89",
          "transactionIndex": "0x34",
          "logIndex": "0x3d",
          "removed": false
        }
      ],
      "logsBloom": "0x00100000000000000008000000000000000000000000000000000000000000000000000000000000000000000000000000000000000000000000000000000000002000000000000000000000000000000000000000000000000000000000000000000000000000000000000000000000000000000000000000000000000000000000000000000000080000000000000000000000000000000000000000000000000000080000000000000000000000000000000000000000000000000000000000000000200000000000000000000000001000000000000000000000000000000000000000000000000000000000000000000000000000000000800000400000",
      "type": "0x2",
      "transactionHash": "0x85576595d7e005daf74e7aabb21d3f539e324967f7945f612e35de5dee90bd89",
      "transactionIndex": "0x34",
      "blockHash": "0x316c50ace89ae2dd805bbb7ef15fff003a26d8fb1af3d8ee863b2d96d1e585ca",
      "blockNumber": "0x919621",
      "gasUsed": "0x209c9",
      "effectiveGasPrice": "0xf4248",
      "from": "0x253ef0749119119f228a362f8f74a35c0a273fa5",
      "to": "0xc3980a99003ec243924fc8b9720d441c653c3bb1",
      "contractAddress": null
    },
    {
      "status": "0x1",
      "cumulativeGasUsed": "0x93ddd2",
      "logs": [
        {
          "address": "0xc3980a99003ec243924fc8b9720d441c653c3bb1",
          "topics": [
            "0x1e4247fdab5708a9838dfa7049b607d56751d7e44584c555c3ca8883b9928065",
            "0x0000000000000000000000002f097cd8623eb3b8ea6d161fe87bbf154a238a3f"
          ],
          "data": "0x0000000000000000000000000000000000000000000000000000000000000020000000000000000000000000000000000000000000000000000000000000000e436f6e6e65787420416d61726f6b000000000000000000000000000000000000",
          "blockHash": "0x316c50ace89ae2dd805bbb7ef15fff003a26d8fb1af3d8ee863b2d96d1e585ca",
          "blockNumber": "0x919621",
          "blockTimestamp": "0x6906b604",
          "transactionHash": "0xef713659690736120bf0b8cf928a70143bb66249927a3e4d594526d5d269f8f2",
          "transactionIndex": "0x35",
          "logIndex": "0x3e",
          "removed": false
        }
      ],
      "logsBloom": "0x00100000000000000008000000000000000000000000000008000000000000000000000000000000000000000000000000000000000000000000000000000000000000000000000000000000000000000000000000000000000000000000000000000000000000000000000000000000000000000000000000000000000000002000001000000000080000000000000000000000000000000000000000000000000000080000000000000000000000000000000000000000000000000000000000000000200000000000000000000000000000000000000000000000000000000000000000000000000000000000000000000000000000000000000000400000",
      "type": "0x2",
      "transactionHash": "0xef713659690736120bf0b8cf928a70143bb66249927a3e4d594526d5d269f8f2",
      "transactionIndex": "0x35",
      "blockHash": "0x316c50ace89ae2dd805bbb7ef15fff003a26d8fb1af3d8ee863b2d96d1e585ca",
      "blockNumber": "0x919621",
      "gasUsed": "0x209c9",
      "effectiveGasPrice": "0xf4248",
      "from": "0x253ef0749119119f228a362f8f74a35c0a273fa5",
      "to": "0xc3980a99003ec243924fc8b9720d441c653c3bb1",
      "contractAddress": null
    }
  ],
  "libraries": [],
  "pending": [],
  "returns": {},
  "timestamp": 1762047493231,
  "chain": 11155111,
  "commit": null
}