{
  "transactions": [
    {
      "hash": "0xda7a5c857f3de91fd840c7c9ad9bfb488768b5430b26ed41655ffef2e4f2d32e",
      "transactionType": "CALL",
      "contractName": null,
      "contractAddress": "0xcfe101a94db590e24a6607a4ccb8910dcebc1227",
      "function": "registerAdapter(address)",
      "arguments": [
        "0xB9B51072EB56ca874224460e65fa96f2d5BeD7f5"
      ],
      "transaction": {
        "from": "0x253ef0749119119f228a362f8f74a35c0a273fa5",
        "to": "0xcfe101a94db590e24a6607a4ccb8910dcebc1227",
        "gas": "0x35c8c",
        "value": "0x0",
        "input": "0x22f2caf1000000000000000000000000b9b51072eb56ca874224460e65fa96f2d5bed7f5",
        "nonce": "0x54",
        "chainId": "0xaa36a7"
      },
      "additionalContracts": [],
      "isFixedGasLimit": false
    },
    {
      "hash": "0x205445132d2ff7f8ef6ba07002e3f5b7f122b91c69bc056a6e1252b9147377cb",
      "transactionType": "CALL",
      "contractName": null,
      "contractAddress": "0xcfe101a94db590e24a6607a4ccb8910dcebc1227",
      "function": "registerAdapter(address)",
      "arguments": [
        "0x8dfD68e1A08209b727149B2256140af9CE1978F0"
      ],
      "transaction": {
        "from": "0x253ef0749119119f228a362f8f74a35c0a273fa5",
        "to": "0xcfe101a94db590e24a6607a4ccb8910dcebc1227",
        "gas": "0x2fb1c",
        "value": "0x0",
        "input": "0x22f2caf10000000000000000000000008dfd68e1a08209b727149b2256140af9ce1978f0",
        "nonce": "0x55",
        "chainId": "0xaa36a7"
      },
      "additionalContracts": [],
      "isFixedGasLimit": false
    },
    {
      "hash": "0x5b192c06af3371943fe9825b14d125369da10027d8fd1510a13844088b5fb413",
      "transactionType": "CALL",
      "contractName": null,
      "contractAddress": "0xcfe101a94db590e24a6607a4ccb8910dcebc1227",
      "function": "registerAdapter(address)",
      "arguments": [
        "0x2f097CD8623EB3b8Ea6d161fe87BbF154A238A3f"
      ],
      "transaction": {
        "from": "0x253ef0749119119f228a362f8f74a35c0a273fa5",
        "to": "0xcfe101a94db590e24a6607a4ccb8910dcebc1227",
        "gas": "0x2fb1c",
        "value": "0x0",
        "input": "0x22f2caf10000000000000000000000002f097cd8623eb3b8ea6d161fe87bbf154a238a3f",
        "nonce": "0x56",
        "chainId": "0xaa36a7"
      },
      "additionalContracts": [],
      "isFixedGasLimit": false
    }
  ],
  "receipts": [
    {
      "status": "0x1",
      "cumulativeGasUsed": "0x1078be2",
      "logs": [
        {
          "address": "0xcfe101a94db590e24a6607a4ccb8910dcebc1227",
          "topics": [
            "0x1e4247fdab5708a9838dfa7049b607d56751d7e44584c555c3ca8883b9928065",
            "0x000000000000000000000000b9b51072eb56ca874224460e65fa96f2d5bed7f5"
          ],
          "data": "0x000000000000000000000000000000000000000000000000000000000000002000000000000000000000000000000000000000000000000000000000000000124c617965725a65726f2053746172676174650000000000000000000000000000",
          "blockHash": "0xbc8ff2cacf754eb9470cc236c06aad3454e1ace447ffd9e3e96a296e747121f1",
          "blockNumber": "0x919fe6",
          "blockTimestamp": "0x69072b7c",
          "transactionHash": "0xda7a5c857f3de91fd840c7c9ad9bfb488768b5430b26ed41655ffef2e4f2d32e",
          "transactionIndex": "0x28",
          "logIndex": "0x151",
          "removed": false
        }
      ],
      "logsBloom": "0x00000000000000000000000000000000000000000000000000000000000000002000000400000000000000000000000000000000000000000000000000000000000000000000000000000000000000000000000000000000000000000000000000000000000000004000000000000000000000000000000000000000000000000000000000000000080000000010000000000000000000000000000800000000000000080000000000000000000000000000000000000000000000000000000000000000000000000000000000000000000000000000000000000000000000000000800000000000000000000000000000000000000000000000000000400000",
      "type": "0x2",
      "transactionHash": "0xda7a5c857f3de91fd840c7c9ad9bfb488768b5430b26ed41655ffef2e4f2d32e",
      "transactionIndex": "0x28",
      "blockHash": "0xbc8ff2cacf754eb9470cc236c06aad3454e1ace447ffd9e3e96a296e747121f1",
      "blockNumber": "0x919fe6",
      "gasUsed": "0x24c69",
      "effectiveGasPrice": "0xf4253",
      "from": "0x253ef0749119119f228a362f8f74a35c0a273fa5",
      "to": "0xcfe101a94db590e24a6607a4ccb8910dcebc1227",
      "contractAddress": null
    },
    {
      "status": "0x1",
      "cumulativeGasUsed": "0x10995ab",
      "logs": [
        {
          "address": "0xcfe101a94db590e24a6607a4ccb8910dcebc1227",
          "topics": [
            "0x1e4247fdab5708a9838dfa7049b607d56751d7e44584c555c3ca8883b9928065",
            "0x0000000000000000000000008dfd68e1a08209b727149b2256140af9ce1978f0"
          ],
          "data": "0x0000000000000000000000000000000000000000000000000000000000000020000000000000000000000000000000000000000000000000000000000000000f4163726f73732050726f746f636f6c0000000000000000000000000000000000",
          "blockHash": "0xbc8ff2cacf754eb9470cc236c06aad3454e1ace447ffd9e3e96a296e747121f1",
          "blockNumber": "0x919fe6",
          "blockTimestamp": "0x69072b7c",
          "transactionHash": "0x205445132d2ff7f8ef6ba07002e3f5b7f122b91c69bc056a6e1252b9147377cb",
          "transactionIndex": "0x29",
          "logIndex": "0x152",
          "removed": false
        }
      ],
      "logsBloom": "0x00000000000000000000000000000000000000000000000000000000000000000000000400000000000000000000000000000000000000000000000000000000002000000000000000000000000000000000000000000000000000000000000000000000000000004000000000000000000000000000000000000000000000000000000000000000080000000000000000000000000000000000000000000000000000080000000000000000000000000000000000000000000000000000000000000000000000000000000000000000001000000000000000000000000000000000800000000000000000000000000000000000000000000000800000400000",
      "type": "0x2",
      "transactionHash": "0x205445132d2ff7f8ef6ba07002e3f5b7f122b91c69bc056a6e1252b9147377cb",
      "transactionIndex": "0x29",
      "blockHash": "0xbc8ff2cacf754eb9470cc236c06aad3454e1ace447ffd9e3e96a296e747121f1",
      "blockNumber": "0x919fe6",
      "gasUsed": "0x209c9",
      "effectiveGasPrice": "0xf4253",
      "from": "0x253ef0749119119f228a362f8f74a35c0a273fa5",
      "to": "0xcfe101a94db590e24a6607a4ccb8910dcebc1227",
      "contractAddress": null
    },
    {
      "status": "0x1",
      "cumulativeGasUsed": "0x10b9f74",
      "logs": [
        {
          "address": "0xcfe101a94db590e24a6607a4ccb8910dcebc1227",
          "topics": [
            "0x1e4247fdab5708a9838dfa7049b607d56751d7e44584c555c3ca8883b9928065",
            "0x0000000000000000000000002f097cd8623eb3b8ea6d161fe87bbf154a238a3f"
          ],
          "data": "0x0000000000000000000000000000000000000000000000000000000000000020000000000000000000000000000000000000000000000000000000000000000e436f6e6e65787420416d61726f6b000000000000000000000000000000000000",
          "blockHash": "0xbc8ff2cacf754eb9470cc236c06aad3454e1ace447ffd9e3e96a296e747121f1",
          "blockNumber": "0x919fe6",
          "blockTimestamp": "0x69072b7c",
          "transactionHash": "0x5b192c06af3371943fe9825b14d125369da10027d8fd1510a13844088b5fb413",
          "transactionIndex": "0x2a",
          "logIndex": "0x153",
          "removed": false
        }
      ],
      "logsBloom": "0x00000000000000000000000000000000000000000000000008000000000000000000000400000000000000000000000000000000000000000000000000000000000000000000000000000000000000000000000000000000000000000000000000000000000000004000000000000000000000000000000000000000000000002000001000000000080000000000000000000000000000000000000000000000000000080000000000000000000000000000000000000000000000000000000000000000000000000000000000000000000000000000000000000000000000000000800000000000000000000000000000000000000000000000000000400000",
      "type": "0x2",
      "transactionHash": "0x5b192c06af3371943fe9825b14d125369da10027d8fd1510a13844088b5fb413",
      "transactionIndex": "0x2a",
      "blockHash": "0xbc8ff2cacf754eb9470cc236c06aad3454e1ace447ffd9e3e96a296e747121f1",
      "blockNumber": "0x919fe6",
      "gasUsed": "0x209c9",
      "effectiveGasPrice": "0xf4253",
      "from": "0x253ef0749119119f228a362f8f74a35c0a273fa5",
      "to": "0xcfe101a94db590e24a6607a4ccb8910dcebc1227",
      "contractAddress": null
    }
  ],
  "libraries": [],
  "pending": [],
  "returns": {},
  "timestamp": 1762077565580,
  "chain": 11155111,
  "commit": null
}