{
  "transactions": [
    {
      "hash": "0x974da45945d2759bc67e9a5ae3411673cbd024ccd284561adbc13fbb3968c61a",
      "transactionType": "CALL",
      "contractName": null,
      "contractAddress": "0x4cb5d76dc96f183e3c0dc0dcf8a8d71f6a10824d",
      "function": "registerAdapter(address)",
      "arguments": [
        "0xB9B51072EB56ca874224460e65fa96f2d5BeD7f5"
      ],
      "transaction": {
        "from": "0x253ef0749119119f228a362f8f74a35c0a273fa5",
        "to": "0x4cb5d76dc96f183e3c0dc0dcf8a8d71f6a10824d",
        "gas": "0x35c8c",
        "value": "0x0",
        "input": "0x22f2caf1000000000000000000000000b9b51072eb56ca874224460e65fa96f2d5bed7f5",
        "nonce": "0x5e",
        "chainId": "0xaa36a7"
      },
      "additionalContracts": [],
      "isFixedGasLimit": false
    },
    {
      "hash": "0x38681084316492b0f64674a437be012cd28085cbefb2433812cb35806c87ebbd",
      "transactionType": "CALL",
      "contractName": null,
      "contractAddress": "0x4cb5d76dc96f183e3c0dc0dcf8a8d71f6a10824d",
      "function": "registerAdapter(address)",
      "arguments": [
        "0x8dfD68e1A08209b727149B2256140af9CE1978F0"
      ],
      "transaction": {
        "from": "0x253ef0749119119f228a362f8f74a35c0a273fa5",
        "to": "0x4cb5d76dc96f183e3c0dc0dcf8a8d71f6a10824d",
        "gas": "0x2fb1c",
        "value": "0x0",
        "input": "0x22f2caf10000000000000000000000008dfd68e1a08209b727149b2256140af9ce1978f0",
        "nonce": "0x5f",
        "chainId": "0xaa36a7"
      },
      "additionalContracts": [],
      "isFixedGasLimit": false
    },
    {
      "hash": "0x867d7ce2fc4dc7ea160194185b8bbaee9e4342c05dfce9cd2d4bd3fb9f4f533f",
      "transactionType": "CALL",
      "contractName": null,
      "contractAddress": "0x4cb5d76dc96f183e3c0dc0dcf8a8d71f6a10824d",
      "function": "registerAdapter(address)",
      "arguments": [
        "0x2f097CD8623EB3b8Ea6d161fe87BbF154A238A3f"
      ],
      "transaction": {
        "from": "0x253ef0749119119f228a362f8f74a35c0a273fa5",
        "to": "0x4cb5d76dc96f183e3c0dc0dcf8a8d71f6a10824d",
        "gas": "0x2fb1c",
        "value": "0x0",
        "input": "0x22f2caf10000000000000000000000002f097cd8623eb3b8ea6d161fe87bbf154a238a3f",
        "nonce": "0x60",
        "chainId": "0xaa36a7"
      },
      "additionalContracts": [],
      "isFixedGasLimit": false
    }
  ],
  "receipts": [
    {
      "status": "0x1",
      "cumulativeGasUsed": "0xcfc48e",
      "logs": [
        {
          "address": "0x4cb5d76dc96f183e3c0dc0dcf8a8d71f6a10824d",
          "topics": [
            "0x1e4247fdab5708a9838dfa7049b607d56751d7e44584c555c3ca8883b9928065",
            "0x000000000000000000000000b9b51072eb56ca874224460e65fa96f2d5bed7f5"
          ],
          "data": "0x000000000000000000000000000000000000000000000000000000000000002000000000000000000000000000000000000000000000000000000000000000124c617965725a65726f2053746172676174650000000000000000000000000000",
          "blockHash": "0x13fadd7e9ab421953f243eecd7c5e5690920bd4263cb9eab9df98781cae58ea8",
          "blockNumber": "0x91a071",
          "blockTimestamp": "0x69073200",
          "transactionHash": "0x974da45945d2759bc67e9a5ae3411673cbd024ccd284561adbc13fbb3968c61a",
          "transactionIndex": "0x28",
          "logIndex": "0xdb",
          "removed": false
        }
      ],
      "logsBloom": "0x00000000000000000000000000000000000000000000000000000000000000002000000000000000000000000000000000000000000000000000000000000000010000000000000000000000000000000000000000000000000000000000000000000000000000000000000000000000000000000000000000000000000000000000000000000000280000000010000000000000000000000000000800000000000000080000000000000000000000000000000000000000000000000000000000000000000000000000000000000000000000000000000010000000000000000000000000000000000000000000000000000000000000000000000000400000",
      "type": "0x2",
      "transactionHash": "0x974da45945d2759bc67e9a5ae3411673cbd024ccd284561adbc13fbb3968c61a",
      "transactionIndex": "0x28",
      "blockHash": "0x13fadd7e9ab421953f243eecd7c5e5690920bd4263cb9eab9df98781cae58ea8",
      "blockNumber": "0x91a071",
      "gasUsed": "0x24c69",
      "effectiveGasPrice": "0x10a0a4",
      "from": "0x253ef0749119119f228a362f8f74a35c0a273fa5",
      "to": "0x4cb5d76dc96f183e3c0dc0dcf8a8d71f6a10824d",
      "contractAddress": null
    },
    {
      "status": "0x1",
      "cumulativeGasUsed": "0xd1ce57",
      "logs": [
        {
          "address": "0x4cb5d76dc96f183e3c0dc0dcf8a8d71f6a10824d",
          "topics": [
            "0x1e4247fdab5708a9838dfa7049b607d56751d7e44584c555c3ca8883b9928065",
            "0x0000000000000000000000008dfd68e1a08209b727149b2256140af9ce1978f0"
          ],
          "data": "0x0000000000000000000000000000000000000000000000000000000000000020000000000000000000000000000000000000000000000000000000000000000f4163726f73732050726f746f636f6c0000000000000000000000000000000000",
          "blockHash": "0x13fadd7e9ab421953f243eecd7c5e5690920bd4263cb9eab9df98781cae58ea8",
          "blockNumber": "0x91a071",
          "blockTimestamp": "0x69073200",
          "transactionHash": "0x38681084316492b0f64674a437be012cd28085cbefb2433812cb35806c87ebbd",
          "transactionIndex": "0x29",
          "logIndex": "0xdc",
          "removed": false
        }
      ],
      "logsBloom": "0x00000000000000000000000000000000000000000000000000000000000000000000000000000000000000000000000000000000000000000000000000000000012000000000000000000000000000000000000000000000000000000000000000000000000000000000000000000000000000000000000000000000000000000000000000000000280000000000000000000000000000000000000000000000000000080000000000000000000000000000000000000000000000000000000000000000000000000000000000000000001000000000000010000000000000000000000000000000000000000000000000000000000000000000800000400000",
      "type": "0x2",
      "transactionHash": "0x38681084316492b0f64674a437be012cd28085cbefb2433812cb35806c87ebbd",
      "transactionIndex": "0x29",
      "blockHash": "0x13fadd7e9ab421953f243eecd7c5e5690920bd4263cb9eab9df98781cae58ea8",
      "blockNumber": "0x91a071",
      "gasUsed": "0x209c9",
      "effectiveGasPrice": "0x10a0a4",
      "from": "0x253ef0749119119f228a362f8f74a35c0a273fa5",
      "to": "0x4cb5d76dc96f183e3c0dc0dcf8a8d71f6a10824d",
      "contractAddress": null
    },
    {
      "status": "0x1",
      "cumulativeGasUsed": "0xd3d820",
      "logs": [
        {
          "address": "0x4cb5d76dc96f183e3c0dc0dcf8a8d71f6a10824d",
          "topics": [
            "0x1e4247fdab5708a9838dfa7049b607d56751d7e44584c555c3ca8883b9928065",
            "0x0000000000000000000000002f097cd8623eb3b8ea6d161fe87bbf154a238a3f"
          ],
          "data": "0x0000000000000000000000000000000000000000000000000000000000000020000000000000000000000000000000000000000000000000000000000000000e436f6e6e65787420416d61726f6b000000000000000000000000000000000000",
          "blockHash": "0x13fadd7e9ab421953f243eecd7c5e5690920bd4263cb9eab9df98781cae58ea8",
          "blockNumber": "0x91a071",
          "blockTimestamp": "0x69073200",
          "transactionHash": "0x867d7ce2fc4dc7ea160194185b8bbaee9e4342c05dfce9cd2d4bd3fb9f4f533f",
          "transactionIndex": "0x2a",
          "logIndex": "0xdd",
          "removed": false
        }
      ],
      "logsBloom": "0x00000000000000000000000000000000000000000000000008000000000000000000000000000000000000000000000000000000000000000000000000000000010000000000000000000000000000000000000000000000000000000000000000000000000000000000000000000000000000000000000000000000000000002000001000000000280000000000000000000000000000000000000000000000000000080000000000000000000000000000000000000000000000000000000000000000000000000000000000000000000000000000000010000000000000000000000000000000000000000000000000000000000000000000000000400000",
      "type": "0x2",
      "transactionHash": "0x867d7ce2fc4dc7ea160194185b8bbaee9e4342c05dfce9cd2d4bd3fb9f4f533f",
      "transactionIndex": "0x2a",
      "blockHash": "0x13fadd7e9ab421953f243eecd7c5e5690920bd4263cb9eab9df98781cae58ea8",
      "blockNumber": "0x91a071",
      "gasUsed": "0x209c9",
      "effectiveGasPrice": "0x10a0a4",
      "from": "0x253ef0749119119f228a362f8f74a35c0a273fa5",
      "to": "0x4cb5d76dc96f183e3c0dc0dcf8a8d71f6a10824d",
      "contractAddress": null
    }
  ],
  "libraries": [],
  "pending": [],
  "returns": {},
  "timestamp": 1762079232887,
  "chain": 11155111,
  "commit": null
}