{
  "transactions": [
    {
      "hash": "0xb0494c20ecfaed678c33644b5fb4ed1e12d8fb80c5ceed7aeedaa62bf1103836",
      "transactionType": "CALL",
      "contractName": null,
      "contractAddress": "0xc3980a99003ec243924fc8b9720d441c653c3bb1",
      "function": "registerAdapter(address)",
      "arguments": [
        "0x3876Ab2536c628DdAD8036489DCE54903b092eb2"
      ],
      "transaction": {
        "from": "0x253ef0749119119f228a362f8f74a35c0a273fa5",
        "to": "0xc3980a99003ec243924fc8b9720d441c653c3bb1",
        "gas": "0x35c8c",
        "value": "0x0",
        "input": "0x22f2caf10000000000000000000000003876ab2536c628ddad8036489dce54903b092eb2",
        "nonce": "0x42",
        "chainId": "0xaa36a7"
      },
      "additionalContracts": [],
      "isFixedGasLimit": false
    },
    {
      "hash": "0x0608123a3bece4e8b328ec492cc0a7067a37672413d3df6ccc86739ab4652422",
      "transactionType": "CALL",
      "contractName": null,
      "contractAddress": "0xc3980a99003ec243924fc8b9720d441c653c3bb1",
      "function": "registerAdapter(address)",
      "arguments": [
        "0x38f815795d2c38C8691B0DD4422ba26A910a9c9C"
      ],
      "transaction": {
        "from": "0x253ef0749119119f228a362f8f74a35c0a273fa5",
        "to": "0xc3980a99003ec243924fc8b9720d441c653c3bb1",
        "gas": "0x2fb1c",
        "value": "0x0",
        "input": "0x22f2caf100000000000000000000000038f815795d2c38c8691b0dd4422ba26a910a9c9c",
        "nonce": "0x43",
        "chainId": "0xaa36a7"
      },
      "additionalContracts": [],
      "isFixedGasLimit": false
    },
    {
      "hash": "0x2d62d4367d361aa8dc5f6445f09ea8c85cc02afb0053cc6216ad480bc9c8a75d",
      "transactionType": "CALL",
      "contractName": null,
      "contractAddress": "0xc3980a99003ec243924fc8b9720d441c653c3bb1",
      "function": "registerAdapter(address)",
      "arguments": [
        "0x635c12E6af3cc9A119397feA116608e5BE78D320"
      ],
      "transaction": {
        "from": "0x253ef0749119119f228a362f8f74a35c0a273fa5",
        "to": "0xc3980a99003ec243924fc8b9720d441c653c3bb1",
        "gas": "0x2fb1c",
        "value": "0x0",
        "input": "0x22f2caf1000000000000000000000000635c12e6af3cc9a119397fea116608e5be78d320",
        "nonce": "0x44",
        "chainId": "0xaa36a7"
      },
      "additionalContracts": [],
      "isFixedGasLimit": false
    }
  ],
  "receipts": [
    {
      "status": "0x1",
      "cumulativeGasUsed": "0x127fb2d",
      "logs": [
        {
          "address": "0xc3980a99003ec243924fc8b9720d441c653c3bb1",
          "topics": [
            "0x1e4247fdab5708a9838dfa7049b607d56751d7e44584c555c3ca8883b9928065",
            "0x0000000000000000000000003876ab2536c628ddad8036489dce54903b092eb2"
          ],
          "data": "0x000000000000000000000000000000000000000000000000000000000000002000000000000000000000000000000000000000000000000000000000000000124c617965725a65726f2053746172676174650000000000000000000000000000",
          "blockHash": "0x6b825391cb0f1c8c77840f1a0accc1239cf2e898186682ad74f398eb3dd7c949",
          "blockNumber": "0x9195ef",
          "blockTimestamp": "0x6906b3a0",
          "transactionHash": "0xb0494c20ecfaed678c33644b5fb4ed1e12d8fb80c5ceed7aeedaa62bf1103836",
          "transactionIndex": "0x44",
          "logIndex": "0x168",
          "removed": false
        }
      ],
      "logsBloom": "0x00100000000000000008000000000000000000000000000000000000000000000000000000000000000000000100000000000000000000000000000000000000000000000000000000000000000000000000000000000000000000000000000000000000000000000000000000000000000000000000000000000000000000000000000000000000080000000000000020000000000000800000000000000000000000080000000000000000000000000000000000000000000000000000000000000000200000000000000000000000000000000000000000000000000000000000000000000000000000000000000000000000000000000000000000400000",
      "type": "0x2",
      "transactionHash": "0xb0494c20ecfaed678c33644b5fb4ed1e12d8fb80c5ceed7aeedaa62bf1103836",
      "transactionIndex": "0x44",
      "blockHash": "0x6b825391cb0f1c8c77840f1a0accc1239cf2e898186682ad74f398eb3dd7c949",
      "blockNumber": "0x9195ef",
      "gasUsed": "0x24c69",
      "effectiveGasPrice": "0xf4249",
      "from": "0x253ef0749119119f228a362f8f74a35c0a273fa5",
      "to": "0xc3980a99003ec243924fc8b9720d441c653c3bb1",
      "contractAddress": null
    },
    {
      "status": "0x1",
      "cumulativeGasUsed": "0x12a04f6",
      "logs": [
        {
          "address": "0xc3980a99003ec243924fc8b9720d441c653c3bb1",
          "topics": [
            "0x1e4247fdab5708a9838dfa7049b607d56751d7e44584c555c3ca8883b9928065",
            "0x00000000000000000000000038f815795d2c38c8691b0dd4422ba26a910a9c9c"
          ],
          "data": "0x0000000000000000000000000000000000000000000000000000000000000020000000000000000000000000000000000000000000000000000000000000000f4163726f73732050726f746f636f6c0000000000000000000000000000000000",
          "blockHash": "0x6b825391cb0f1c8c77840f1a0accc1239cf2e898186682ad74f398eb3dd7c949",
          "blockNumber": "0x9195ef",
          "blockTimestamp": "0x6906b3a0",
          "transactionHash": "0x0608123a3bece4e8b328ec492cc0a7067a37672413d3df6ccc86739ab4652422",
          "transactionIndex": "0x45",
          "logIndex": "0x169",
          "removed": false
        }
      ],
      "logsBloom": "0x00100000000000000008000000000000000000000000000000000000000000000000000000000000000000000000000000000000000000000000000000000000000000000000000000000000000000000000000000000000000000000000000000000000000000000008000000000000000000000000000000000000000000000000000000000020080000000000000000000000000000000000000000000000000000080000000000000000000000000000000000000000000000000000000000000000200000000000000000000000000000000000000000004000000000000000000000000000000000000000000000000000000000000000000000400000",
      "type": "0x2",
      "transactionHash": "0x0608123a3bece4e8b328ec492cc0a7067a37672413d3df6ccc86739ab4652422",
      "transactionIndex": "0x45",
      "blockHash": "0x6b825391cb0f1c8c77840f1a0accc1239cf2e898186682ad74f398eb3dd7c949",
      "blockNumber": "0x9195ef",
      "gasUsed": "0x209c9",
      "effectiveGasPrice": "0xf4249",
      "from": "0x253ef0749119119f228a362f8f74a35c0a273fa5",
      "to": "0xc3980a99003ec243924fc8b9720d441c653c3bb1",
      "contractAddress": null
    },
    {
      "status": "0x1",
      "cumulativeGasUsed": "0x12c0ebf",
      "logs": [
        {
          "address": "0xc3980a99003ec243924fc8b9720d441c653c3bb1",
          "topics": [
            "0x1e4247fdab5708a9838dfa7049b607d56751d7e44584c555c3ca8883b9928065",
            "0x000000000000000000000000635c12e6af3cc9a119397fea116608e5be78d320"
          ],
          "data": "0x0000000000000000000000000000000000000000000000000000000000000020000000000000000000000000000000000000000000000000000000000000000e436f6e6e65787420416d61726f6b000000000000000000000000000000000000",
          "blockHash": "0x6b825391cb0f1c8c77840f1a0accc1239cf2e898186682ad74f398eb3dd7c949",
          "blockNumber": "0x9195ef",
          "blockTimestamp": "0x6906b3a0",
          "transactionHash": "0x2d62d4367d361aa8dc5f6445f09ea8c85cc02afb0053cc6216ad480bc9c8a75d",
          "transactionIndex": "0x46",
          "logIndex": "0x16a",
          "removed": false
        }
      ],
      "logsBloom": "0x00100000000000000008000000000000000000000000000000000000000000000000000000000000000000000000000800000000000000000000010000000000000000000000000000008000000000000000000000000000000000000000000000000000000000000000000000000000000000000000000000000000000000000000000000000000080000000000000000000000000000000000000000000000000000080000000000000000000000000000000000000000000000000000000000000000200000000000000000000000000000000000000000000000000000000000000000000000000000000000000000000000000000000000000000400000",
      "type": "0x2",
      "transactionHash": "0x2d62d4367d361aa8dc5f6445f09ea8c85cc02afb0053cc6216ad480bc9c8a75d",
      "transactionIndex": "0x46",
      "blockHash": "0x6b825391cb0f1c8c77840f1a0accc1239cf2e898186682ad74f398eb3dd7c949",
      "blockNumber": "0x9195ef",
      "gasUsed": "0x209c9",
      "effectiveGasPrice": "0xf4249",
      "from": "0x253ef0749119119f228a362f8f74a35c0a273fa5",
      "to": "0xc3980a99003ec243924fc8b9720d441c653c3bb1",
      "contractAddress": null
    }
  ],
  "libraries": [],
  "pending": [],
  "returns": {},
  "timestamp": 1762046880239,
  "chain": 11155111,
  "commit": null
}