{
  "transactions": [
    {
      "hash": "0x08fade558f1f425d76a873edc30f3366dd189e2f4e6ebf9672801b2afcf141c9",
      "transactionType": "CALL",
      "contractName": null,
      "contractAddress": "0x8a969d85db320877f4689c24c1e3299db698d027",
      "function": "registerBridge(address,uint256[],address[])",
      "arguments": [
        "0xB9B51072EB56ca874224460e65fa96f2d5BeD7f5",
        "[11155111, 421614]",
        "[0x0000000000000000000000000000000000000000]"
      ],
      "transaction": {
        "from": "0x253ef0749119119f228a362f8f74a35c0a273fa5",
        "to": "0x8a969d85db320877f4689c24c1e3299db698d027",
        "gas": "0xc6320",
        "value": "0x0",
        "input": "0xbcd606a0000000000000000000000000b9b51072eb56ca874224460e65fa96f2d5bed7f5000000000000000000000000000000000000000000000000000000000000006000000000000000000000000000000000000000000000000000000000000000c000000000000000000000000000000000000000000000000000000000000000020000000000000000000000000000000000000000000000000000000000aa36a70000000000000000000000000000000000000000000000000000000000066eee00000000000000000000000000000000000000000000000000000000000000010000000000000000000000000000000000000000000000000000000000000000",
        "nonce": "0x57",
        "chainId": "0xaa36a7"
      },
      "additionalContracts": [],
      "isFixedGasLimit": false
    },
    {
      "hash": "0x21a65ae80942f628afe5a7fa147d259d9768d0fe45cf621d9032a5a2053f5d30",
      "transactionType": "CALL",
      "contractName": null,
      "contractAddress": "0x8a969d85db320877f4689c24c1e3299db698d027",
      "function": "registerBridge(address,uint256[],address[])",
      "arguments": [
        "0x8dfD68e1A08209b727149B2256140af9CE1978F0",
        "[11155111, 421614]",
        "[0x0000000000000000000000000000000000000000]"
      ],
      "transaction": {
        "from": "0x253ef0749119119f228a362f8f74a35c0a273fa5",
        "to": "0x8a969d85db320877f4689c24c1e3299db698d027",
        "gas": "0xa4223",
        "value": "0x0",
        "input": "0xbcd606a00000000000000000000000008dfd68e1a08209b727149b2256140af9ce1978f0000000000000000000000000000000000000000000000000000000000000006000000000000000000000000000000000000000000000000000000000000000c000000000000000000000000000000000000000000000000000000000000000020000000000000000000000000000000000000000000000000000000000aa36a70000000000000000000000000000000000000000000000000000000000066eee00000000000000000000000000000000000000000000000000000000000000010000000000000000000000000000000000000000000000000000000000000000",
        "nonce": "0x58",
        "chainId": "0xaa36a7"
      },
      "additionalContracts": [],
      "isFixedGasLimit": false
    },
    {
      "hash": "0x7674190e4b377eca2bb6ee8d21890a6f2b997fb08e8d9b799068fa87aa760d20",
      "transactionType": "CALL",
      "contractName": null,
      "contractAddress": "0x8a969d85db320877f4689c24c1e3299db698d027",
      "function": "registerBridge(address,uint256[],address[])",
      "arguments": [
        "0x2f097CD8623EB3b8Ea6d161fe87BbF154A238A3f",
        "[11155111, 421614]",
        "[0x0000000000000000000000000000000000000000]"
      ],
      "transaction": {
        "from": "0x253ef0749119119f228a362f8f74a35c0a273fa5",
        "to": "0x8a969d85db320877f4689c24c1e3299db698d027",
        "gas": "0xa4223",
        "value": "0x0",
        "input": "0xbcd606a00000000000000000000000002f097cd8623eb3b8ea6d161fe87bbf154a238a3f000000000000000000000000000000000000000000000000000000000000006000000000000000000000000000000000000000000000000000000000000000c000000000000000000000000000000000000000000000000000000000000000020000000000000000000000000000000000000000000000000000000000aa36a70000000000000000000000000000000000000000000000000000000000066eee00000000000000000000000000000000000000000000000000000000000000010000000000000000000000000000000000000000000000000000000000000000",
        "nonce": "0x59",
        "chainId": "0xaa36a7"
      },
      "additionalContracts": [],
      "isFixedGasLimit": false
    }
  ],
  "receipts": [
    {
      "status": "0x1",
      "cumulativeGasUsed": "0x4cf990",
      "logs": [
        {
          "address": "0x8a969d85db320877f4689c24c1e3299db698d027",
          "topics": [
            "0xbd0dcad6cc60e052d803599246a7c45d2c1aa6ed1777d1b8e38835e9a2d7b3cd",
            "0x000000000000000000000000b9b51072eb56ca874224460e65fa96f2d5bed7f5",
            "0x000000000000000000000000253ef0749119119f228a362f8f74a35c0a273fa5"
          ],
          "data": "0x000000000000000000000000000000000000000000000000000000000000002000000000000000000000000000000000000000000000000000000000000000124c617965725a65726f2053746172676174650000000000000000000000000000",
          "blockHash": "0x4f53605e84feb1866e50f24298d55c4ba532cc1bfb9f0f67b26bbe0c91595555",
          "blockNumber": "0x91a010",
          "blockTimestamp": "0x69072d74",
          "transactionHash": "0x08fade558f1f425d76a873edc30f3366dd189e2f4e6ebf9672801b2afcf141c9",
          "transactionIndex": "0x2b",
          "logIndex": "0x37",
          "removed": false
        }
      ],
      "logsBloom": "0x00002000000000000000000000000210000000000000000000000000000000002000000000000000000000000000000000000000000002000000000000000000080000000000000000000000000000000000000000000000010000000000000000000000000000000000000000000000000000000000000000000000000000000000000000000000000000000010000000000000000000000000000800000000000000000000000000000000000000000000000000000000000000000000080000000000000000000000000000000000000000000000000000004000000000000000000000000000000000000000000000000000008000000000000000000000",
      "type": "0x2",
      "transactionHash": "0x08fade558f1f425d76a873edc30f3366dd189e2f4e6ebf9672801b2afcf141c9",
      "transactionIndex": "0x2b",
      "blockHash": "0x4f53605e84feb1866e50f24298d55c4ba532cc1bfb9f0f67b26bbe0c91595555",
      "blockNumber": "0x91a010",
      "gasUsed": "0x8784b",
      "effectiveGasPrice": "0xf4253",
      "from": "0x253ef0749119119f228a362f8f74a35c0a273fa5",
      "to": "0x8a969d85db320877f4689c24c1e3299db698d027",
      "contractAddress": null
    },
    {
      "status": "0x1",
      "cumulativeGasUsed": "0x5466d7",
      "logs": [
        {
          "address": "0x8a969d85db320877f4689c24c1e3299db698d027",
          "topics": [
            "0xbd0dcad6cc60e052d803599246a7c45d2c1aa6ed1777d1b8e38835e9a2d7b3cd",
            "0x0000000000000000000000008dfd68e1a08209b727149b2256140af9ce1978f0",
            "0x000000000000000000000000253ef0749119119f228a362f8f74a35c0a273fa5"
          ],
          "data": "0x0000000000000000000000000000000000000000000000000000000000000020000000000000000000000000000000000000000000000000000000000000000f4163726f73732050726f746f636f6c0000000000000000000000000000000000",
          "blockHash": "0x4f53605e84feb1866e50f24298d55c4ba532cc1bfb9f0f67b26bbe0c91595555",
          "blockNumber": "0x91a010",
          "blockTimestamp": "0x69072d74",
          "transactionHash": "0x21a65ae80942f628afe5a7fa147d259d9768d0fe45cf621d9032a5a2053f5d30",
          "transactionIndex": "0x2c",
          "logIndex": "0x38",
          "removed": false
        }
      ],
      "logsBloom": "0x00002000000000000000000000000210000000000000000000000000000000000000000000000000000000000000000000000000000002000000000000000000082000000000000000000000000000000000000000000000010000000000000000000000000000000000000000000000000000000000000000000000000000000000000000000000000000000000000000000000000000000000000000000000000000000000000000000000000000000000000000000000000000000000080000000000000000000000000000000000001000000000000000004000000000000000000000000000000000000000000000000000008000000000800000000000",
      "type": "0x2",
      "transactionHash": "0x21a65ae80942f628afe5a7fa147d259d9768d0fe45cf621d9032a5a2053f5d30",
      "transactionIndex": "0x2c",
      "blockHash": "0x4f53605e84feb1866e50f24298d55c4ba532cc1bfb9f0f67b26bbe0c91595555",
      "blockNumber": "0x91a010",
      "gasUsed": "0x76d47",
      "effectiveGasPrice": "0xf4253",
      "from": "0x253ef0749119119f228a362f8f74a35c0a273fa5",
      "to": "0x8a969d85db320877f4689c24c1e3299db698d027",
      "contractAddress": null
    },
    {
      "status": "0x1",
      "cumulativeGasUsed": "0x5bd41e",
      "logs": [
        {
          "address": "0x8a969d85db320877f4689c24c1e3299db698d027",
          "topics": [
            "0xbd0dcad6cc60e052d803599246a7c45d2c1aa6ed1777d1b8e38835e9a2d7b3cd",
            "0x0000000000000000000000002f097cd8623eb3b8ea6d161fe87bbf154a238a3f",
            "0x000000000000000000000000253ef0749119119f228a362f8f74a35c0a273fa5"
          ],
          "data": "0x0000000000000000000000000000000000000000000000000000000000000020000000000000000000000000000000000000000000000000000000000000000e436f6e6e65787420416d61726f6b000000000000000000000000000000000000",
          "blockHash": "0x4f53605e84feb1866e50f24298d55c4ba532cc1bfb9f0f67b26bbe0c91595555",
          "blockNumber": "0x91a010",
          "blockTimestamp": "0x69072d74",
          "transactionHash": "0x7674190e4b377eca2bb6ee8d21890a6f2b997fb08e8d9b799068fa87aa760d20",
          "transactionIndex": "0x2d",
          "logIndex": "0x39",
          "removed": false
        }
      ],
      "logsBloom": "0x00002000000000000000000000000210000000000000000008000000000000000000000000000000000000000000000000000000000002000000000000000000080000000000000000000000000000000000000000000000010000000000000000000000000000000000000000000000000000000000000000000000000000002000001000000000000000000000000000000000000000000000000000000000000000000000000000000000000000000000000000000000000000000000080000000000000000000000000000000000000000000000000000004000000000000000000000000000000000000000000000000000008000000000000000000000",
      "type": "0x2",
      "transactionHash": "0x7674190e4b377eca2bb6ee8d21890a6f2b997fb08e8d9b799068fa87aa760d20",
      "transactionIndex": "0x2d",
      "blockHash": "0x4f53605e84feb1866e50f24298d55c4ba532cc1bfb9f0f67b26bbe0c91595555",
      "blockNumber": "0x91a010",
      "gasUsed": "0x76d47",
      "effectiveGasPrice": "0xf4253",
      "from": "0x253ef0749119119f228a362f8f74a35c0a273fa5",
      "to": "0x8a969d85db320877f4689c24c1e3299db698d027",
      "contractAddress": null
    }
  ],
  "libraries": [],
  "pending": [],
  "returns": {},
  "timestamp": 1762078069413,
  "chain": 11155111,
  "commit": null
}