{
  "transactions": [
    {
      "hash": "0xd0f6d86febf9ded6ee3250758ab9eb9a1d5cc6c5ceb7dd3763d2983e2473bbbf",
      "transactionType": "CALL",
      "contractName": null,
      "contractAddress": "0x4c9d8ba4bcd7b4f7eda75ecc0b853af66fe6bae7",
      "function": "deregisterBridge(address,string)",
      "arguments": [
        "0x3876Ab2536c628DdAD8036489DCE54903b092eb2",
        "Updating supported chains"
      ],
      "transaction": {
        "from": "0x253ef0749119119f228a362f8f74a35c0a273fa5",
        "to": "0x4c9d8ba4bcd7b4f7eda75ecc0b853af66fe6bae7",
        "gas": "0x2a6b3",
        "value": "0x0",
        "input": "0x16ec3bd80000000000000000000000003876ab2536c628ddad8036489dce54903b092eb2000000000000000000000000000000000000000000000000000000000000004000000000000000000000000000000000000000000000000000000000000000195570646174696e6720737570706f7274656420636861696e7300000000000000",
        "nonce": "0x3c",
        "chainId": "0xaa36a7"
      },
      "additionalContracts": [],
      "isFixedGasLimit": false
    },
    {
      "hash": "0xe5527de6d701daa7490ba7b2c27aa5eaae035f2fc01ff427ea03d8df07d0cd6d",
      "transactionType": "CALL",
      "contractName": null,
      "contractAddress": "0x4c9d8ba4bcd7b4f7eda75ecc0b853af66fe6bae7",
      "function": "deregisterBridge(address,string)",
      "arguments": [
        "0x38f815795d2c38C8691B0DD4422ba26A910a9c9C",
        "Updating supported chains"
      ],
      "transaction": {
        "from": "0x253ef0749119119f228a362f8f74a35c0a273fa5",
        "to": "0x4c9d8ba4bcd7b4f7eda75ecc0b853af66fe6bae7",
        "gas": "0x288e7",
        "value": "0x0",
        "input": "0x16ec3bd800000000000000000000000038f815795d2c38c8691b0dd4422ba26a910a9c9c000000000000000000000000000000000000000000000000000000000000004000000000000000000000000000000000000000000000000000000000000000195570646174696e6720737570706f7274656420636861696e7300000000000000",
        "nonce": "0x3d",
        "chainId": "0xaa36a7"
      },
      "additionalContracts": [],
      "isFixedGasLimit": false
    },
    {
      "hash": "0xb96eac2f90f056124ade597a23ce138c933497fb0d9851f03702856647de335d",
      "transactionType": "CALL",
      "contractName": null,
      "contractAddress": "0x4c9d8ba4bcd7b4f7eda75ecc0b853af66fe6bae7",
      "function": "deregisterBridge(address,string)",
      "arguments": [
        "0x635c12E6af3cc9A119397feA116608e5BE78D320",
        "Updating supported chains"
      ],
      "transaction": {
        "from": "0x253ef0749119119f228a362f8f74a35c0a273fa5",
        "to": "0x4c9d8ba4bcd7b4f7eda75ecc0b853af66fe6bae7",
        "gas": "0x2688b",
        "value": "0x0",
        "input": "0x16ec3bd8000000000000000000000000635c12e6af3cc9a119397fea116608e5be78d320000000000000000000000000000000000000000000000000000000000000004000000000000000000000000000000000000000000000000000000000000000195570646174696e6720737570706f7274656420636861696e7300000000000000",
        "nonce": "0x3e",
        "chainId": "0xaa36a7"
      },
      "additionalContracts": [],
      "isFixedGasLimit": false
    },
    {
      "hash": "0x3e00b13e55f14803d05e8bf5cf2cf04b0ccbfcb2dc06cf0b2ef1cfda0e211655",
      "transactionType": "CALL",
      "contractName": null,
      "contractAddress": "0x4c9d8ba4bcd7b4f7eda75ecc0b853af66fe6bae7",
      "function": "registerBridge(address,uint256[],address[])",
      "arguments": [
        "0x3876Ab2536c628DdAD8036489DCE54903b092eb2",
        "[11155111, 421614]",
        "[0x0000000000000000000000000000000000000000]"
      ],
      "transaction": {
        "from": "0x253ef0749119119f228a362f8f74a35c0a273fa5",
        "to": "0x4c9d8ba4bcd7b4f7eda75ecc0b853af66fe6bae7",
        "gas": "0xc6320",
        "value": "0x0",
        "input": "0xbcd606a00000000000000000000000003876ab2536c628ddad8036489dce54903b092eb2000000000000000000000000000000000000000000000000000000000000006000000000000000000000000000000000000000000000000000000000000000c000000000000000000000000000000000000000000000000000000000000000020000000000000000000000000000000000000000000000000000000000aa36a70000000000000000000000000000000000000000000000000000000000066eee00000000000000000000000000000000000000000000000000000000000000010000000000000000000000000000000000000000000000000000000000000000",
        "nonce": "0x3f",
        "chainId": "0xaa36a7"
      },
      "additionalContracts": [],
      "isFixedGasLimit": false
    },
    {
      "hash": "0x819c61c1e50495cdc92a03d98fa1593480b08ddc4b16390aa426507e8c2ed237",
      "transactionType": "CALL",
      "contractName": null,
      "contractAddress": "0x4c9d8ba4bcd7b4f7eda75ecc0b853af66fe6bae7",
      "function": "registerBridge(address,uint256[],address[])",
      "arguments": [
        "0x38f815795d2c38C8691B0DD4422ba26A910a9c9C",
        "[11155111, 421614]",
        "[0x0000000000000000000000000000000000000000]"
      ],
      "transaction": {
        "from": "0x253ef0749119119f228a362f8f74a35c0a273fa5",
        "to": "0x4c9d8ba4bcd7b4f7eda75ecc0b853af66fe6bae7",
        "gas": "0xa4223",
        "value": "0x0",
        "input": "0xbcd606a000000000000000000000000038f815795d2c38c8691b0dd4422ba26a910a9c9c000000000000000000000000000000000000000000000000000000000000006000000000000000000000000000000000000000000000000000000000000000c000000000000000000000000000000000000000000000000000000000000000020000000000000000000000000000000000000000000000000000000000aa36a70000000000000000000000000000000000000000000000000000000000066eee00000000000000000000000000000000000000000000000000000000000000010000000000000000000000000000000000000000000000000000000000000000",
        "nonce": "0x40",
        "chainId": "0xaa36a7"
      },
      "additionalContracts": [],
      "isFixedGasLimit": false
    },
    {
      "hash": "0x25cf76fc6b53304a7fa4fc50a2a5bd888b23bece84c8e1c534db454281e74a03",
      "transactionType": "CALL",
      "contractName": null,
      "contractAddress": "0x4c9d8ba4bcd7b4f7eda75ecc0b853af66fe6bae7",
      "function": "registerBridge(address,uint256[],address[])",
      "arguments": [
        "0x635c12E6af3cc9A119397feA116608e5BE78D320",
        "[11155111, 421614]",
        "[0x0000000000000000000000000000000000000000]"
      ],
      "transaction": {
        "from": "0x253ef0749119119f228a362f8f74a35c0a273fa5",
        "to": "0x4c9d8ba4bcd7b4f7eda75ecc0b853af66fe6bae7",
        "gas": "0xa4223",
        "value": "0x0",
        "input": "0xbcd606a0000000000000000000000000635c12e6af3cc9a119397fea116608e5be78d320000000000000000000000000000000000000000000000000000000000000006000000000000000000000000000000000000000000000000000000000000000c000000000000000000000000000000000000000000000000000000000000000020000000000000000000000000000000000000000000000000000000000aa36a70000000000000000000000000000000000000000000000000000000000066eee00000000000000000000000000000000000000000000000000000000000000010000000000000000000000000000000000000000000000000000000000000000",
        "nonce": "0x41",
        "chainId": "0xaa36a7"
      },
      "additionalContracts": [],
      "isFixedGasLimit": false
    }
  ],
  "receipts": [
    {
      "status": "0x1",
      "cumulativeGasUsed": "0x6c7978",
      "logs": [
        {
          "address": "0x4c9d8ba4bcd7b4f7eda75ecc0b853af66fe6bae7",
          "topics": [
            "0xfe4a6267f16cd4422a5559f3a2ca80d6663245fdf13e6507fad6f34748b10c4c",
            "0x0000000000000000000000003876ab2536c628ddad8036489dce54903b092eb2",
            "0x000000000000000000000000253ef0749119119f228a362f8f74a35c0a273fa5"
          ],
          "data": "0x000000000000000000000000000000000000000000000000000000000000002000000000000000000000000000000000000000000000000000000000000000195570646174696e6720737570706f7274656420636861696e7300000000000000",
          "blockHash": "0x2c545023a17d1cabf08bfac221c7643aff0de0778b4f7385fb47444088df3f6a",
          "blockNumber": "0x9195d0",
          "blockTimestamp": "0x6906b22c",
          "transactionHash": "0xd0f6d86febf9ded6ee3250758ab9eb9a1d5cc6c5ceb7dd3763d2983e2473bbbf",
          "transactionIndex": "0x2c",
          "logIndex": "0x27",
          "removed": false
        }
      ],
      "logsBloom": "0x00000000000000000000000000000000000000000000000000000000000000000000000000000000000000000100002000000000000000000020000000000000080000000000000000000000000000000000000000000000010000000000000000000000000000000000000000000000000000000000000000000000000000000000000000020000000000000000000020020000000000800000000000000000000000010000000000000000000000000000000000000000000000000000200000000000000000000000000000000000000000000000000000004000000000000000000000000000000000000000000000000000000000000000000000000000",
      "type": "0x2",
      "transactionHash": "0xd0f6d86febf9ded6ee3250758ab9eb9a1d5cc6c5ceb7dd3763d2983e2473bbbf",
      "transactionIndex": "0x2c",
      "blockHash": "0x2c545023a17d1cabf08bfac221c7643aff0de0778b4f7385fb47444088df3f6a",
      "blockNumber": "0x9195d0",
      "gasUsed": "0x1eb5f",
      "effectiveGasPrice": "0xf4249",
      "from": "0x253ef0749119119f228a362f8f74a35c0a273fa5",
      "to": "0x4c9d8ba4bcd7b4f7eda75ecc0b853af66fe6bae7",
      "contractAddress": null
    },
    {
      "status": "0x1",
      "cumulativeGasUsed": "0x6e4f44",
      "logs": [
        {
          "address": "0x4c9d8ba4bcd7b4f7eda75ecc0b853af66fe6bae7",
          "topics": [
            "0xfe4a6267f16cd4422a5559f3a2ca80d6663245fdf13e6507fad6f34748b10c4c",
            "0x00000000000000000000000038f815795d2c38c8691b0dd4422ba26a910a9c9c",
            "0x000000000000000000000000253ef0749119119f228a362f8f74a35c0a273fa5"
          ],
          "data": "0x000000000000000000000000000000000000000000000000000000000000002000000000000000000000000000000000000000000000000000000000000000195570646174696e6720737570706f7274656420636861696e7300000000000000",
          "blockHash": "0x2c545023a17d1cabf08bfac221c7643aff0de0778b4f7385fb47444088df3f6a",
          "blockNumber": "0x9195d0",
          "blockTimestamp": "0x6906b22c",
          "transactionHash": "0xe5527de6d701daa7490ba7b2c27aa5eaae035f2fc01ff427ea03d8df07d0cd6d",
          "transactionIndex": "0x2d",
          "logIndex": "0x28",
          "removed": false
        }
      ],
      "logsBloom": "0x00000000000000000000000000000000000000000000000000000000000000000000000000000000000000000000002000000000000000000020000000000000080000000000000000000000000000000000000000000000010000000000000000000000000000000008000000000000000000000000000000000000000000000000000000020020000000000000000000020000000000000000000000000000000000010000000000000000000000000000000000000000000000000000200000000000000000000000000000000000000000000000000000004000000000000000000000000000000000000000000000000000000000000000000000000000",
      "type": "0x2",
      "transactionHash": "0xe5527de6d701daa7490ba7b2c27aa5eaae035f2fc01ff427ea03d8df07d0cd6d",
      "transactionIndex": "0x2d",
      "blockHash": "0x2c545023a17d1cabf08bfac221c7643aff0de0778b4f7385fb47444088df3f6a",
      "blockNumber": "0x9195d0",
      "gasUsed": "0x1d5cc",
      "effectiveGasPrice": "0xf4249",
      "from": "0x253ef0749119119f228a362f8f74a35c0a273fa5",
      "to": "0x4c9d8ba4bcd7b4f7eda75ecc0b853af66fe6bae7",
      "contractAddress": null
    },
    {
      "status": "0x1",
      "cumulativeGasUsed": "0x700da3",
      "logs": [
        {
          "address": "0x4c9d8ba4bcd7b4f7eda75ecc0b853af66fe6bae7",
          "topics": [
            "0xfe4a6267f16cd4422a5559f3a2ca80d6663245fdf13e6507fad6f34748b10c4c",
            "0x000000000000000000000000635c12e6af3cc9a119397fea116608e5be78d320",
            "0x000000000000000000000000253ef0749119119f228a362f8f74a35c0a273fa5"
          ],
          "data": "0x000000000000000000000000000000000000000000000000000000000000002000000000000000000000000000000000000000000000000000000000000000195570646174696e6720737570706f7274656420636861696e7300000000000000",
          "blockHash": "0x2c545023a17d1cabf08bfac221c7643aff0de0778b4f7385fb47444088df3f6a",
          "blockNumber": "0x9195d0",
          "blockTimestamp": "0x6906b22c",
          "transactionHash": "0xb96eac2f90f056124ade597a23ce138c933497fb0d9851f03702856647de335d",
          "transactionIndex": "0x2e",
          "logIndex": "0x29",
          "removed": false
        }
      ],
      "logsBloom": "0x00000000000000000000000000000000000000000000000000000000000000000000000000000000000000000000002800000000000000000020010000000000080000000000000000008000000000000000000000000000010000000000000000000000000000000000000000000000000000000000000000000000000000000000000000020000000000000000000000020000000000000000000000000000000000010000000000000000000000000000000000000000000000000000200000000000000000000000000000000000000000000000000000004000000000000000000000000000000000000000000000000000000000000000000000000000",
      "type": "0x2",
      "transactionHash": "0xb96eac2f90f056124ade597a23ce138c933497fb0d9851f03702856647de335d",
      "transactionIndex": "0x2e",
      "blockHash": "0x2c545023a17d1cabf08bfac221c7643aff0de0778b4f7385fb47444088df3f6a",
      "blockNumber": "0x9195d0",
      "gasUsed": "0x1be5f",
      "effectiveGasPrice": "0xf4249",
      "from": "0x253ef0749119119f228a362f8f74a35c0a273fa5",
      "to": "0x4c9d8ba4bcd7b4f7eda75ecc0b853af66fe6bae7",
      "contractAddress": null
    },
    {
      "status": "0x1",
      "cumulativeGasUsed": "0x7885ee",
      "logs": [
        {
          "address": "0x4c9d8ba4bcd7b4f7eda75ecc0b853af66fe6bae7",
          "topics": [
            "0xbd0dcad6cc60e052d803599246a7c45d2c1aa6ed1777d1b8e38835e9a2d7b3cd",
            "0x0000000000000000000000003876ab2536c628ddad8036489dce54903b092eb2",
            "0x000000000000000000000000253ef0749119119f228a362f8f74a35c0a273fa5"
          ],
          "data": "0x000000000000000000000000000000000000000000000000000000000000002000000000000000000000000000000000000000000000000000000000000000124c617965725a65726f2053746172676174650000000000000000000000000000",
          "blockHash": "0x2c545023a17d1cabf08bfac221c7643aff0de0778b4f7385fb47444088df3f6a",
          "blockNumber": "0x9195d0",
          "blockTimestamp": "0x6906b22c",
          "transactionHash": "0x3e00b13e55f14803d05e8bf5cf2cf04b0ccbfcb2dc06cf0b2ef1cfda0e211655",
          "transactionIndex": "0x2f",
          "logIndex": "0x2a",
          "removed": false
        }
      ],
      "logsBloom": "0x00000000000000000000000000000000000000000000000000000000000000000000000000000000000000000100000000000000000002000000000000000000080000000000000000000000000000000000000000000000010000000000000000000000000000000000000000000000000000000000000000000000000000000000000000020000000000000000000020020000000000800000000000000000000000000000000000000000000000000000000000000000000000000000280000000000000000000000000000000000000000000000000000004000000000000000000000000000000000000000000000000000008000000000000000000000",
      "type": "0x2",
      "transactionHash": "0x3e00b13e55f14803d05e8bf5cf2cf04b0ccbfcb2dc06cf0b2ef1cfda0e211655",
      "transactionIndex": "0x2f",
      "blockHash": "0x2c545023a17d1cabf08bfac221c7643aff0de0778b4f7385fb47444088df3f6a",
      "blockNumber": "0x9195d0",
      "gasUsed": "0x8784b",
      "effectiveGasPrice": "0xf4249",
      "from": "0x253ef0749119119f228a362f8f74a35c0a273fa5",
      "to": "0x4c9d8ba4bcd7b4f7eda75ecc0b853af66fe6bae7",
      "contractAddress": null
    },
    {
      "status": "0x1",
      "cumulativeGasUsed": "0x7ff335",
      "logs": [
        {
          "address": "0x4c9d8ba4bcd7b4f7eda75ecc0b853af66fe6bae7",
          "topics": [
            "0xbd0dcad6cc60e052d803599246a7c45d2c1aa6ed1777d1b8e38835e9a2d7b3cd",
            "0x00000000000000000000000038f815795d2c38c8691b0dd4422ba26a910a9c9c",
            "0x000000000000000000000000253ef0749119119f228a362f8f74a35c0a273fa5"
          ],
          "data": "0x0000000000000000000000000000000000000000000000000000000000000020000000000000000000000000000000000000000000000000000000000000000f4163726f73732050726f746f636f6c0000000000000000000000000000000000",
          "blockHash": "0x2c545023a17d1cabf08bfac221c7643aff0de0778b4f7385fb47444088df3f6a",
          "blockNumber": "0x9195d0",
          "blockTimestamp": "0x6906b22c",
          "transactionHash": "0x819c61c1e50495cdc92a03d98fa1593480b08ddc4b16390aa426507e8c2ed237",
          "transactionIndex": "0x30",
          "logIndex": "0x2b",
          "removed": false
        }
      ],
      "logsBloom": "0x00000000000000000000000000000000000000000000000000000000000000000000000000000000000000000000000000000000000002000000000000000000080000000000000000000000000000000000000000000000010000000000000000000000000000000008000000000000000000000000000000000000000000000000000000020020000000000000000000020000000000000000000000000000000000000000000000000000000000000000000000000000000000000000280000000000000000000000000000000000000000000000000000004000000000000000000000000000000000000000000000000000008000000000000000000000",
      "type": "0x2",
      "transactionHash": "0x819c61c1e50495cdc92a03d98fa1593480b08ddc4b16390aa426507e8c2ed237",
      "transactionIndex": "0x30",
      "blockHash": "0x2c545023a17d1cabf08bfac221c7643aff0de0778b4f7385fb47444088df3f6a",
      "blockNumber": "0x9195d0",
      "gasUsed": "0x76d47",
      "effectiveGasPrice": "0xf4249",
      "from": "0x253ef0749119119f228a362f8f74a35c0a273fa5",
      "to": "0x4c9d8ba4bcd7b4f7eda75ecc0b853af66fe6bae7",
      "contractAddress": null
    },
    {
      "status": "0x1",
      "cumulativeGasUsed": "0x87607c",
      "logs": [
        {
          "address": "0x4c9d8ba4bcd7b4f7eda75ecc0b853af66fe6bae7",
          "topics": [
            "0xbd0dcad6cc60e052d803599246a7c45d2c1aa6ed1777d1b8e38835e9a2d7b3cd",
            "0x000000000000000000000000635c12e6af3cc9a119397fea116608e5be78d320",
            "0x000000000000000000000000253ef0749119119f228a362f8f74a35c0a273fa5"
          ],
          "data": "0x0000000000000000000000000000000000000000000000000000000000000020000000000000000000000000000000000000000000000000000000000000000e436f6e6e65787420416d61726f6b000000000000000000000000000000000000",
          "blockHash": "0x2c545023a17d1cabf08bfac221c7643aff0de0778b4f7385fb47444088df3f6a",
          "blockNumber": "0x9195d0",
          "blockTimestamp": "0x6906b22c",
          "transactionHash": "0x25cf76fc6b53304a7fa4fc50a2a5bd888b23bece84c8e1c534db454281e74a03",
          "transactionIndex": "0x31",
          "logIndex": "0x2c",
          "removed": false
        }
      ],
      "logsBloom": "0x00000000000000000000000000000000000000000000000000000000000000000000000000000000000000000000000800000000000002000000010000000000080000000000000000008000000000000000000000000000010000000000000000000000000000000000000000000000000000000000000000000000000000000000000000020000000000000000000000020000000000000000000000000000000000000000000000000000000000000000000000000000000000000000280000000000000000000000000000000000000000000000000000004000000000000000000000000000000000000000000000000000008000000000000000000000",
      "type": "0x2",
      "transactionHash": "0x25cf76fc6b53304a7fa4fc50a2a5bd888b23bece84c8e1c534db454281e74a03",
      "transactionIndex": "0x31",
      "blockHash": "0x2c545023a17d1cabf08bfac221c7643aff0de0778b4f7385fb47444088df3f6a",
      "blockNumber": "0x9195d0",
      "gasUsed": "0x76d47",
      "effectiveGasPrice": "0xf4249",
      "from": "0x253ef0749119119f228a362f8f74a35c0a273fa5",
      "to": "0x4c9d8ba4bcd7b4f7eda75ecc0b853af66fe6bae7",
      "contractAddress": null
    }
  ],
  "libraries": [],
  "pending": [],
  "returns": {},
  "timestamp": 1762046509346,
  "chain": 11155111,
  "commit": null
}