{
  "transactions": [
    {
      "hash": "0x1052b9c361b14f6c5db7f5b6196775c24ebe03ded962d2c0ac15a8fb5c928c75",
      "transactionType": "CALL",
      "contractName": null,
      "contractAddress": "0x225a3471178028978081919aa3ff522c57ac7c8b",
      "function": "registerBridge(address,uint256[],address[])",
      "arguments": [
        "0xB9B51072EB56ca874224460e65fa96f2d5BeD7f5",
        "[11155111, 421614]",
        "[0x0000000000000000000000000000000000000000]"
      ],
      "transaction": {
        "from": "0x253ef0749119119f228a362f8f74a35c0a273fa5",
        "to": "0x225a3471178028978081919aa3ff522c57ac7c8b",
        "gas": "0xc6320",
        "value": "0x0",
        "input": "0xbcd606a0000000000000000000000000b9b51072eb56ca874224460e65fa96f2d5bed7f5000000000000000000000000000000000000000000000000000000000000006000000000000000000000000000000000000000000000000000000000000000c000000000000000000000000000000000000000000000000000000000000000020000000000000000000000000000000000000000000000000000000000aa36a70000000000000000000000000000000000000000000000000000000000066eee00000000000000000000000000000000000000000000000000000000000000010000000000000000000000000000000000000000000000000000000000000000",
        "nonce": "0x61",
        "chainId": "0xaa36a7"
      },
      "additionalContracts": [],
      "isFixedGasLimit": false
    },
    {
      "hash": "0x36aa47817b440bff8801872e8812d501673861f0041d73b0663a7fd280a3bf5e",
      "transactionType": "CALL",
      "contractName": null,
      "contractAddress": "0x225a3471178028978081919aa3ff522c57ac7c8b",
      "function": "registerBridge(address,uint256[],address[])",
      "arguments": [
        "0x8dfD68e1A08209b727149B2256140af9CE1978F0",
        "[11155111, 421614]",
        "[0x0000000000000000000000000000000000000000]"
      ],
      "transaction": {
        "from": "0x253ef0749119119f228a362f8f74a35c0a273fa5",
        "to": "0x225a3471178028978081919aa3ff522c57ac7c8b",
        "gas": "0xa4223",
        "value": "0x0",
        "input": "0xbcd606a00000000000000000000000008dfd68e1a08209b727149b2256140af9ce1978f0000000000000000000000000000000000000000000000000000000000000006000000000000000000000000000000000000000000000000000000000000000c000000000000000000000000000000000000000000000000000000000000000020000000000000000000000000000000000000000000000000000000000aa36a70000000000000000000000000000000000000000000000000000000000066eee00000000000000000000000000000000000000000000000000000000000000010000000000000000000000000000000000000000000000000000000000000000",
        "nonce": "0x62",
        "chainId": "0xaa36a7"
      },
      "additionalContracts": [],
      "isFixedGasLimit": false
    },
    {
      "hash": "0xdb557e6e6736c4f981c61bd34d853087b669782ea03258a1adb19310561841fc",
      "transactionType": "CALL",
      "contractName": null,
      "contractAddress": "0x225a3471178028978081919aa3ff522c57ac7c8b",
      "function": "registerBridge(address,uint256[],address[])",
      "arguments": [
        "0x2f097CD8623EB3b8Ea6d161fe87BbF154A238A3f",
        "[11155111, 421614]",
        "[0x0000000000000000000000000000000000000000]"
      ],
      "transaction": {
        "from": "0x253ef0749119119f228a362f8f74a35c0a273fa5",
        "to": "0x225a3471178028978081919aa3ff522c57ac7c8b",
        "gas": "0xa4223",
        "value": "0x0",
        "input": "0xbcd606a00000000000000000000000002f097cd8623eb3b8ea6d161fe87bbf154a238a3f000000000000000000000000000000000000000000000000000000000000006000000000000000000000000000000000000000000000000000000000000000c000000000000000000000000000000000000000000000000000000000000000020000000000000000000000000000000000000000000000000000000000aa36a70000000000000000000000000000000000000000000000000000000000066eee00000000000000000000000000000000000000000000000000000000000000010000000000000000000000000000000000000000000000000000000000000000",
        "nonce": "0x63",
        "chainId": "0xaa36a7"
      },
      "additionalContracts": [],
      "isFixedGasLimit": false
    }
  ],
  "receipts": [
    {
      "status": "0x1",
      "cumulativeGasUsed": "0xc8895b",
      "logs": [
        {
          "address": "0x225a3471178028978081919aa3ff522c57ac7c8b",
          "topics": [
            "0xbd0dcad6cc60e052d803599246a7c45d2c1aa6ed1777d1b8e38835e9a2d7b3cd",
            "0x000000000000000000000000b9b51072eb56ca874224460e65fa96f2d5bed7f5",
            "0x000000000000000000000000253ef0749119119f228a362f8f74a35c0a273fa5"
          ],
          "data": "0x000000000000000000000000000000000000000000000000000000000000002000000000000000000000000000000000000000000000000000000000000000124c617965725a65726f2053746172676174650000000000000000000000000000",
          "blockHash": "0x1916680070725542d847a6a1c3acef0ec4669f1a042c7663bbb8350be854f8dd",
          "blockNumber": "0x91a077",
          "blockTimestamp": "0x69073248",
          "transactionHash": "0x1052b9c361b14f6c5db7f5b6196775c24ebe03ded962d2c0ac15a8fb5c928c75",
          "transactionIndex": "0x28",
          "logIndex": "0xb8",
          "removed": false
        }
      ],
      "logsBloom": "0x00000000000000000000000000000000000000000000000000000000000000002000000000000000000000000000000000000000000002000000000000000000080000000000000000000000000000000000000000000000010000000000010000000000000000000000000000000000000000000000000000000000000000000000000000000000000000000010000000000000000000000000000800000000000000000000000000000000000000000000000000000000000000000000080000000000000000000000000000000000000000000000000000004000008000000000000000000000000000000000000000000000008000010000000000000000",
      "type": "0x2",
      "transactionHash": "0x1052b9c361b14f6c5db7f5b6196775c24ebe03ded962d2c0ac15a8fb5c928c75",
      "transactionIndex": "0x28",
      "blockHash": "0x1916680070725542d847a6a1c3acef0ec4669f1a042c7663bbb8350be854f8dd",
      "blockNumber": "0x91a077",
      "gasUsed": "0x8784b",
      "effectiveGasPrice": "0x10a0a4",
      "from": "0x253ef0749119119f228a362f8f74a35c0a273fa5",
      "to": "0x225a3471178028978081919aa3ff522c57ac7c8b",
      "contractAddress": null
    },
    {
      "status": "0x1",
      "cumulativeGasUsed": "0xcff6a2",
      "logs": [
        {
          "address": "0x225a3471178028978081919aa3ff522c57ac7c8b",
          "topics": [
            "0xbd0dcad6cc60e052d803599246a7c45d2c1aa6ed1777d1b8e38835e9a2d7b3cd",
            "0x0000000000000000000000008dfd68e1a08209b727149b2256140af9ce1978f0",
            "0x000000000000000000000000253ef0749119119f228a362f8f74a35c0a273fa5"
          ],
          "data": "0x0000000000000000000000000000000000000000000000000000000000000020000000000000000000000000000000000000000000000000000000000000000f4163726f73732050726f746f636f6c0000000000000000000000000000000000",
          "blockHash": "0x1916680070725542d847a6a1c3acef0ec4669f1a042c7663bbb8350be854f8dd",
          "blockNumber": "0x91a077",
          "blockTimestamp": "0x69073248",
          "transactionHash": "0x36aa47817b440bff8801872e8812d501673861f0041d73b0663a7fd280a3bf5e",
          "transactionIndex": "0x29",
          "logIndex": "0xb9",
          "removed": false
        }
      ],
      "logsBloom": "0x00000000000000000000000000000000000000000000000000000000000000000000000000000000000000000000000000000000000002000000000000000000082000000000000000000000000000000000000000000000010000000000010000000000000000000000000000000000000000000000000000000000000000000000000000000000000000000000000000000000000000000000000000000000000000000000000000000000000000000000000000000000000000000000080000000000000000000000000000000000001000000000000000004000008000000000000000000000000000000000000000000000008000010000800000000000",
      "type": "0x2",
      "transactionHash": "0x36aa47817b440bff8801872e8812d501673861f0041d73b0663a7fd280a3bf5e",
      "transactionIndex": "0x29",
      "blockHash": "0x1916680070725542d847a6a1c3acef0ec4669f1a042c7663bbb8350be854f8dd",
      "blockNumber": "0x91a077",
      "gasUsed": "0x76d47",
      "effectiveGasPrice": "0x10a0a4",
      "from": "0x253ef0749119119f228a362f8f74a35c0a273fa5",
      "to": "0x225a3471178028978081919aa3ff522c57ac7c8b",
      "contractAddress": null
    },
    {
      "status": "0x1",
      "cumulativeGasUsed": "0xd763e9",
      "logs": [
        {
          "address": "0x225a3471178028978081919aa3ff522c57ac7c8b",
          "topics": [
            "0xbd0dcad6cc60e052d803599246a7c45d2c1aa6ed1777d1b8e38835e9a2d7b3cd",
            "0x0000000000000000000000002f097cd8623eb3b8ea6d161fe87bbf154a238a3f",
            "0x000000000000000000000000253ef0749119119f228a362f8f74a35c0a273fa5"
          ],
          "data": "0x0000000000000000000000000000000000000000000000000000000000000020000000000000000000000000000000000000000000000000000000000000000e436f6e6e65787420416d61726f6b000000000000000000000000000000000000",
          "blockHash": "0x1916680070725542d847a6a1c3acef0ec4669f1a042c7663bbb8350be854f8dd",
          "blockNumber": "0x91a077",
          "blockTimestamp": "0x69073248",
          "transactionHash": "0xdb557e6e6736c4f981c61bd34d853087b669782ea03258a1adb19310561841fc",
          "transactionIndex": "0x2a",
          "logIndex": "0xba",
          "removed": false
        }
      ],
      "logsBloom": "0x00000000000000000000000000000000000000000000000008000000000000000000000000000000000000000000000000000000000002000000000000000000080000000000000000000000000000000000000000000000010000000000010000000000000000000000000000000000000000000000000000000000000000002000001000000000000000000000000000000000000000000000000000000000000000000000000000000000000000000000000000000000000000000000080000000000000000000000000000000000000000000000000000004000008000000000000000000000000000000000000000000000008000010000000000000000",
      "type": "0x2",
      "transactionHash": "0xdb557e6e6736c4f981c61bd34d853087b669782ea03258a1adb19310561841fc",
      "transactionIndex": "0x2a",
      "blockHash": "0x1916680070725542d847a6a1c3acef0ec4669f1a042c7663bbb8350be854f8dd",
      "blockNumber": "0x91a077",
      "gasUsed": "0x76d47",
      "effectiveGasPrice": "0x10a0a4",
      "from": "0x253ef0749119119f228a362f8f74a35c0a273fa5",
      "to": "0x225a3471178028978081919aa3ff522c57ac7c8b",
      "contractAddress": null
    }
  ],
  "libraries": [],
  "pending": [],
  "returns": {},
  "timestamp": 1762079304518,
  "chain": 11155111,
  "commit": null
}